{
	"dynamic_nft/erc20.sol": {
		"erc20": {
			"abi": [
				{
					"inputs": [],
					"stateMutability": "nonpayable",
					"type": "constructor"
				},
				{
					"anonymous": false,
					"inputs": [
						{
							"indexed": true,
							"internalType": "address",
							"name": "tokenOwner",
							"type": "address"
						},
						{
							"indexed": true,
							"internalType": "address",
							"name": "spender",
							"type": "address"
						},
						{
							"indexed": false,
							"internalType": "uint256",
							"name": "tokens",
							"type": "uint256"
						}
					],
					"name": "Approval",
					"type": "event"
				},
				{
					"anonymous": false,
					"inputs": [
						{
							"indexed": true,
							"internalType": "address",
							"name": "from",
							"type": "address"
						},
						{
							"indexed": true,
							"internalType": "address",
							"name": "to",
							"type": "address"
						},
						{
							"indexed": false,
							"internalType": "uint256",
							"name": "value",
							"type": "uint256"
						}
					],
					"name": "Transfer",
					"type": "event"
				},
				{
					"inputs": [
						{
							"internalType": "address",
							"name": "_owner",
							"type": "address"
						},
						{
							"internalType": "address",
							"name": "_spender",
							"type": "address"
						}
					],
					"name": "allowence",
					"outputs": [
						{
							"internalType": "uint256",
							"name": "",
							"type": "uint256"
						}
					],
					"stateMutability": "view",
					"type": "function"
				},
				{
					"inputs": [
						{
							"internalType": "address",
							"name": "_owner",
							"type": "address"
						},
						{
							"internalType": "address",
							"name": "_spender",
							"type": "address"
						},
						{
							"internalType": "uint256",
							"name": "_value",
							"type": "uint256"
						}
					],
					"name": "approve",
					"outputs": [
						{
							"internalType": "uint256",
							"name": "",
							"type": "uint256"
						}
					],
					"stateMutability": "nonpayable",
					"type": "function"
				},
				{
					"inputs": [
						{
							"internalType": "address",
							"name": "tokenOwner",
							"type": "address"
						}
					],
					"name": "balanceOf",
					"outputs": [
						{
							"internalType": "uint256",
							"name": "",
							"type": "uint256"
						}
					],
					"stateMutability": "view",
					"type": "function"
				},
				{
					"inputs": [
						{
							"internalType": "uint256",
							"name": "_qty",
							"type": "uint256"
						}
					],
					"name": "burn",
					"outputs": [
						{
							"internalType": "uint256",
							"name": "",
							"type": "uint256"
						}
					],
					"stateMutability": "nonpayable",
					"type": "function"
				},
				{
					"inputs": [],
					"name": "decimals",
					"outputs": [
						{
							"internalType": "uint256",
							"name": "",
							"type": "uint256"
						}
					],
					"stateMutability": "view",
					"type": "function"
				},
				{
					"inputs": [
						{
							"internalType": "uint256",
							"name": "_qty",
							"type": "uint256"
						}
					],
					"name": "mint",
					"outputs": [
						{
							"internalType": "uint256",
							"name": "",
							"type": "uint256"
						}
					],
					"stateMutability": "nonpayable",
					"type": "function"
				},
				{
					"inputs": [],
					"name": "name",
					"outputs": [
						{
							"internalType": "string",
							"name": "",
							"type": "string"
						}
					],
					"stateMutability": "view",
					"type": "function"
				},
				{
					"inputs": [],
					"name": "symbol",
					"outputs": [
						{
							"internalType": "string",
							"name": "",
							"type": "string"
						}
					],
					"stateMutability": "view",
					"type": "function"
				},
				{
					"inputs": [],
					"name": "totalSupply",
					"outputs": [
						{
							"internalType": "uint256",
							"name": "",
							"type": "uint256"
						}
					],
					"stateMutability": "view",
					"type": "function"
				},
				{
					"inputs": [
						{
							"internalType": "address",
							"name": "receiver",
							"type": "address"
						},
						{
							"internalType": "uint256",
							"name": "numTokens",
							"type": "uint256"
						}
					],
					"name": "transfer",
					"outputs": [
						{
							"internalType": "bool",
							"name": "",
							"type": "bool"
						}
					],
					"stateMutability": "nonpayable",
					"type": "function"
				},
				{
					"inputs": [
						{
							"internalType": "address",
							"name": "_from",
							"type": "address"
						},
						{
							"internalType": "address",
							"name": "_to",
							"type": "address"
						},
						{
							"internalType": "uint256",
							"name": "_value",
							"type": "uint256"
						}
					],
					"name": "transferFrom",
					"outputs": [
						{
							"internalType": "bool",
							"name": "",
							"type": "bool"
						}
					],
					"stateMutability": "nonpayable",
					"type": "function"
				}
			],
			"devdoc": {
				"kind": "dev",
				"methods": {},
				"version": 1
			},
			"evm": {
				"assembly": "    /* \"dynamic_nft/erc20.sol\":564:2788  contract erc20 is IERC20{... */\n  mstore(0x40, 0x80)\n    /* \"dynamic_nft/erc20.sol\":595:624  string public  name = \"EthTK\" */\n  mload(0x40)\n  dup1\n  0x40\n  add\n  0x40\n  mstore\n  dup1\n  0x05\n  dup2\n  mstore\n  0x20\n  add\n  0x457468544b000000000000000000000000000000000000000000000000000000\n  dup2\n  mstore\n  pop\n  0x00\n  swap1\n  dup2\n  tag_1\n  swap2\n  swap1\n  tag_2\n  jump\t// in\ntag_1:\n  pop\n    /* \"dynamic_nft/erc20.sol\":631:659  string public symbol = 'ETK' */\n  mload(0x40)\n  dup1\n  0x40\n  add\n  0x40\n  mstore\n  dup1\n  0x03\n  dup2\n  mstore\n  0x20\n  add\n  0x45544b0000000000000000000000000000000000000000000000000000000000\n  dup2\n  mstore\n  pop\n  0x01\n  swap1\n  dup2\n  tag_3\n  swap2\n  swap1\n  tag_2\n  jump\t// in\ntag_3:\n  pop\n    /* \"dynamic_nft/erc20.sol\":690:695  10000 */\n  0x2710\n    /* \"dynamic_nft/erc20.sol\":666:695  uint public  decimals = 10000 */\n  0x02\n  sstore\n    /* \"dynamic_nft/erc20.sol\":913:918  10000 */\n  0x2710\n    /* \"dynamic_nft/erc20.sol\":894:918  uint totalSupply_ =10000 */\n  0x05\n  sstore\n    /* \"dynamic_nft/erc20.sol\":951:1016  constructor()  {... */\n  callvalue\n  dup1\n  iszero\n  tag_4\n  jumpi\n  0x00\n  dup1\n  revert\ntag_4:\n  pop\n    /* \"dynamic_nft/erc20.sol\":996:1006  msg.sender */\n  caller\n    /* \"dynamic_nft/erc20.sol\":988:993  admin */\n  0x06\n  0x00\n    /* \"dynamic_nft/erc20.sol\":988:1006  admin = msg.sender */\n  0x0100\n  exp\n  dup2\n  sload\n  dup2\n  0xffffffffffffffffffffffffffffffffffffffff\n  mul\n  not\n  and\n  swap1\n  dup4\n  0xffffffffffffffffffffffffffffffffffffffff\n  and\n  mul\n  or\n  swap1\n  sstore\n  pop\n    /* \"dynamic_nft/erc20.sol\":564:2788  contract erc20 is IERC20{... */\n  jump(tag_7)\n    /* \"#utility.yul\":7:106   */\ntag_8:\n    /* \"#utility.yul\":59:65   */\n  0x00\n    /* \"#utility.yul\":93:98   */\n  dup2\n    /* \"#utility.yul\":87:99   */\n  mload\n    /* \"#utility.yul\":77:99   */\n  swap1\n  pop\n    /* \"#utility.yul\":7:106   */\n  swap2\n  swap1\n  pop\n  jump\t// out\n    /* \"#utility.yul\":112:292   */\ntag_9:\n    /* \"#utility.yul\":160:237   */\n  0x4e487b7100000000000000000000000000000000000000000000000000000000\n    /* \"#utility.yul\":157:158   */\n  0x00\n    /* \"#utility.yul\":150:238   */\n  mstore\n    /* \"#utility.yul\":257:261   */\n  0x41\n    /* \"#utility.yul\":254:255   */\n  0x04\n    /* \"#utility.yul\":247:262   */\n  mstore\n    /* \"#utility.yul\":281:285   */\n  0x24\n    /* \"#utility.yul\":278:279   */\n  0x00\n    /* \"#utility.yul\":271:286   */\n  revert\n    /* \"#utility.yul\":298:478   */\ntag_10:\n    /* \"#utility.yul\":346:423   */\n  0x4e487b7100000000000000000000000000000000000000000000000000000000\n    /* \"#utility.yul\":343:344   */\n  0x00\n    /* \"#utility.yul\":336:424   */\n  mstore\n    /* \"#utility.yul\":443:447   */\n  0x22\n    /* \"#utility.yul\":440:441   */\n  0x04\n    /* \"#utility.yul\":433:448   */\n  mstore\n    /* \"#utility.yul\":467:471   */\n  0x24\n    /* \"#utility.yul\":464:465   */\n  0x00\n    /* \"#utility.yul\":457:472   */\n  revert\n    /* \"#utility.yul\":484:804   */\ntag_11:\n    /* \"#utility.yul\":528:534   */\n  0x00\n    /* \"#utility.yul\":565:566   */\n  0x02\n    /* \"#utility.yul\":559:563   */\n  dup3\n    /* \"#utility.yul\":555:567   */\n  div\n    /* \"#utility.yul\":545:567   */\n  swap1\n  pop\n    /* \"#utility.yul\":612:613   */\n  0x01\n    /* \"#utility.yul\":606:610   */\n  dup3\n    /* \"#utility.yul\":602:614   */\n  and\n    /* \"#utility.yul\":633:651   */\n  dup1\n    /* \"#utility.yul\":623:704   */\n  tag_33\n  jumpi\n    /* \"#utility.yul\":689:693   */\n  0x7f\n    /* \"#utility.yul\":681:687   */\n  dup3\n    /* \"#utility.yul\":677:694   */\n  and\n    /* \"#utility.yul\":667:694   */\n  swap2\n  pop\n    /* \"#utility.yul\":623:704   */\ntag_33:\n    /* \"#utility.yul\":751:753   */\n  0x20\n    /* \"#utility.yul\":743:749   */\n  dup3\n    /* \"#utility.yul\":740:754   */\n  lt\n    /* \"#utility.yul\":720:738   */\n  dup2\n    /* \"#utility.yul\":717:755   */\n  sub\n    /* \"#utility.yul\":714:798   */\n  tag_34\n  jumpi\n    /* \"#utility.yul\":770:788   */\n  tag_35\n  tag_10\n  jump\t// in\ntag_35:\n    /* \"#utility.yul\":714:798   */\ntag_34:\n    /* \"#utility.yul\":535:804   */\n  pop\n    /* \"#utility.yul\":484:804   */\n  swap2\n  swap1\n  pop\n  jump\t// out\n    /* \"#utility.yul\":810:951   */\ntag_12:\n    /* \"#utility.yul\":859:863   */\n  0x00\n    /* \"#utility.yul\":882:885   */\n  dup2\n    /* \"#utility.yul\":874:885   */\n  swap1\n  pop\n    /* \"#utility.yul\":905:908   */\n  dup2\n    /* \"#utility.yul\":902:903   */\n  0x00\n    /* \"#utility.yul\":895:909   */\n  mstore\n    /* \"#utility.yul\":939:943   */\n  0x20\n    /* \"#utility.yul\":936:937   */\n  0x00\n    /* \"#utility.yul\":926:944   */\n  keccak256\n    /* \"#utility.yul\":918:944   */\n  swap1\n  pop\n    /* \"#utility.yul\":810:951   */\n  swap2\n  swap1\n  pop\n  jump\t// out\n    /* \"#utility.yul\":957:1050   */\ntag_13:\n    /* \"#utility.yul\":994:1000   */\n  0x00\n    /* \"#utility.yul\":1041:1043   */\n  0x20\n    /* \"#utility.yul\":1036:1038   */\n  0x1f\n    /* \"#utility.yul\":1029:1034   */\n  dup4\n    /* \"#utility.yul\":1025:1039   */\n  add\n    /* \"#utility.yul\":1021:1044   */\n  div\n    /* \"#utility.yul\":1011:1044   */\n  swap1\n  pop\n    /* \"#utility.yul\":957:1050   */\n  swap2\n  swap1\n  pop\n  jump\t// out\n    /* \"#utility.yul\":1056:1163   */\ntag_14:\n    /* \"#utility.yul\":1100:1108   */\n  0x00\n    /* \"#utility.yul\":1150:1155   */\n  dup3\n    /* \"#utility.yul\":1144:1148   */\n  dup3\n    /* \"#utility.yul\":1140:1156   */\n  shl\n    /* \"#utility.yul\":1119:1156   */\n  swap1\n  pop\n    /* \"#utility.yul\":1056:1163   */\n  swap3\n  swap2\n  pop\n  pop\n  jump\t// out\n    /* \"#utility.yul\":1169:1562   */\ntag_15:\n    /* \"#utility.yul\":1238:1244   */\n  0x00\n    /* \"#utility.yul\":1288:1289   */\n  0x08\n    /* \"#utility.yul\":1276:1286   */\n  dup4\n    /* \"#utility.yul\":1272:1290   */\n  mul\n    /* \"#utility.yul\":1311:1408   */\n  tag_40\n    /* \"#utility.yul\":1341:1407   */\n  0xffffffffffffffffffffffffffffffffffffffffffffffffffffffffffffffff\n    /* \"#utility.yul\":1330:1339   */\n  dup3\n    /* \"#utility.yul\":1311:1408   */\n  tag_14\n  jump\t// in\ntag_40:\n    /* \"#utility.yul\":1429:1468   */\n  tag_41\n    /* \"#utility.yul\":1459:1467   */\n  dup7\n    /* \"#utility.yul\":1448:1457   */\n  dup4\n    /* \"#utility.yul\":1429:1468   */\n  tag_14\n  jump\t// in\ntag_41:\n    /* \"#utility.yul\":1417:1468   */\n  swap6\n  pop\n    /* \"#utility.yul\":1501:1505   */\n  dup1\n    /* \"#utility.yul\":1497:1506   */\n  not\n    /* \"#utility.yul\":1490:1495   */\n  dup5\n    /* \"#utility.yul\":1486:1507   */\n  and\n    /* \"#utility.yul\":1477:1507   */\n  swap4\n  pop\n    /* \"#utility.yul\":1550:1554   */\n  dup1\n    /* \"#utility.yul\":1540:1548   */\n  dup7\n    /* \"#utility.yul\":1536:1555   */\n  and\n    /* \"#utility.yul\":1529:1534   */\n  dup5\n    /* \"#utility.yul\":1526:1556   */\n  or\n    /* \"#utility.yul\":1516:1556   */\n  swap3\n  pop\n    /* \"#utility.yul\":1245:1562   */\n  pop\n  pop\n    /* \"#utility.yul\":1169:1562   */\n  swap4\n  swap3\n  pop\n  pop\n  pop\n  jump\t// out\n    /* \"#utility.yul\":1568:1645   */\ntag_16:\n    /* \"#utility.yul\":1605:1612   */\n  0x00\n    /* \"#utility.yul\":1634:1639   */\n  dup2\n    /* \"#utility.yul\":1623:1639   */\n  swap1\n  pop\n    /* \"#utility.yul\":1568:1645   */\n  swap2\n  swap1\n  pop\n  jump\t// out\n    /* \"#utility.yul\":1651:1711   */\ntag_17:\n    /* \"#utility.yul\":1679:1682   */\n  0x00\n    /* \"#utility.yul\":1700:1705   */\n  dup2\n    /* \"#utility.yul\":1693:1705   */\n  swap1\n  pop\n    /* \"#utility.yul\":1651:1711   */\n  swap2\n  swap1\n  pop\n  jump\t// out\n    /* \"#utility.yul\":1717:1859   */\ntag_18:\n    /* \"#utility.yul\":1767:1776   */\n  0x00\n    /* \"#utility.yul\":1800:1853   */\n  tag_45\n    /* \"#utility.yul\":1818:1852   */\n  tag_46\n    /* \"#utility.yul\":1827:1851   */\n  tag_47\n    /* \"#utility.yul\":1845:1850   */\n  dup5\n    /* \"#utility.yul\":1827:1851   */\n  tag_16\n  jump\t// in\ntag_47:\n    /* \"#utility.yul\":1818:1852   */\n  tag_17\n  jump\t// in\ntag_46:\n    /* \"#utility.yul\":1800:1853   */\n  tag_16\n  jump\t// in\ntag_45:\n    /* \"#utility.yul\":1787:1853   */\n  swap1\n  pop\n    /* \"#utility.yul\":1717:1859   */\n  swap2\n  swap1\n  pop\n  jump\t// out\n    /* \"#utility.yul\":1865:1940   */\ntag_19:\n    /* \"#utility.yul\":1908:1911   */\n  0x00\n    /* \"#utility.yul\":1929:1934   */\n  dup2\n    /* \"#utility.yul\":1922:1934   */\n  swap1\n  pop\n    /* \"#utility.yul\":1865:1940   */\n  swap2\n  swap1\n  pop\n  jump\t// out\n    /* \"#utility.yul\":1946:2215   */\ntag_20:\n    /* \"#utility.yul\":2056:2095   */\n  tag_50\n    /* \"#utility.yul\":2087:2094   */\n  dup4\n    /* \"#utility.yul\":2056:2095   */\n  tag_18\n  jump\t// in\ntag_50:\n    /* \"#utility.yul\":2117:2208   */\n  tag_51\n    /* \"#utility.yul\":2166:2207   */\n  tag_52\n    /* \"#utility.yul\":2190:2206   */\n  dup3\n    /* \"#utility.yul\":2166:2207   */\n  tag_19\n  jump\t// in\ntag_52:\n    /* \"#utility.yul\":2158:2164   */\n  dup5\n    /* \"#utility.yul\":2151:2155   */\n  dup5\n    /* \"#utility.yul\":2145:2156   */\n  sload\n    /* \"#utility.yul\":2117:2208   */\n  tag_15\n  jump\t// in\ntag_51:\n    /* \"#utility.yul\":2111:2115   */\n  dup3\n    /* \"#utility.yul\":2104:2209   */\n  sstore\n    /* \"#utility.yul\":2022:2215   */\n  pop\n    /* \"#utility.yul\":1946:2215   */\n  pop\n  pop\n  pop\n  jump\t// out\n    /* \"#utility.yul\":2221:2294   */\ntag_21:\n    /* \"#utility.yul\":2266:2269   */\n  0x00\n    /* \"#utility.yul\":2221:2294   */\n  swap1\n  jump\t// out\n    /* \"#utility.yul\":2300:2489   */\ntag_22:\n    /* \"#utility.yul\":2377:2409   */\n  tag_55\n  tag_21\n  jump\t// in\ntag_55:\n    /* \"#utility.yul\":2418:2483   */\n  tag_56\n    /* \"#utility.yul\":2476:2482   */\n  dup2\n    /* \"#utility.yul\":2468:2474   */\n  dup5\n    /* \"#utility.yul\":2462:2466   */\n  dup5\n    /* \"#utility.yul\":2418:2483   */\n  tag_20\n  jump\t// in\ntag_56:\n    /* \"#utility.yul\":2353:2489   */\n  pop\n    /* \"#utility.yul\":2300:2489   */\n  pop\n  pop\n  jump\t// out\n    /* \"#utility.yul\":2495:2681   */\ntag_23:\n    /* \"#utility.yul\":2555:2675   */\ntag_58:\n    /* \"#utility.yul\":2572:2575   */\n  dup2\n    /* \"#utility.yul\":2565:2570   */\n  dup2\n    /* \"#utility.yul\":2562:2576   */\n  lt\n    /* \"#utility.yul\":2555:2675   */\n  iszero\n  tag_60\n  jumpi\n    /* \"#utility.yul\":2626:2665   */\n  tag_61\n    /* \"#utility.yul\":2663:2664   */\n  0x00\n    /* \"#utility.yul\":2656:2661   */\n  dup3\n    /* \"#utility.yul\":2626:2665   */\n  tag_22\n  jump\t// in\ntag_61:\n    /* \"#utility.yul\":2599:2600   */\n  0x01\n    /* \"#utility.yul\":2592:2597   */\n  dup2\n    /* \"#utility.yul\":2588:2601   */\n  add\n    /* \"#utility.yul\":2579:2601   */\n  swap1\n  pop\n    /* \"#utility.yul\":2555:2675   */\n  jump(tag_58)\ntag_60:\n    /* \"#utility.yul\":2495:2681   */\n  pop\n  pop\n  jump\t// out\n    /* \"#utility.yul\":2687:3230   */\ntag_24:\n    /* \"#utility.yul\":2788:2790   */\n  0x1f\n    /* \"#utility.yul\":2783:2786   */\n  dup3\n    /* \"#utility.yul\":2780:2791   */\n  gt\n    /* \"#utility.yul\":2777:3223   */\n  iszero\n  tag_63\n  jumpi\n    /* \"#utility.yul\":2822:2860   */\n  tag_64\n    /* \"#utility.yul\":2854:2859   */\n  dup2\n    /* \"#utility.yul\":2822:2860   */\n  tag_12\n  jump\t// in\ntag_64:\n    /* \"#utility.yul\":2906:2935   */\n  tag_65\n    /* \"#utility.yul\":2924:2934   */\n  dup5\n    /* \"#utility.yul\":2906:2935   */\n  tag_13\n  jump\t// in\ntag_65:\n    /* \"#utility.yul\":2896:2904   */\n  dup2\n    /* \"#utility.yul\":2892:2936   */\n  add\n    /* \"#utility.yul\":3089:3091   */\n  0x20\n    /* \"#utility.yul\":3077:3087   */\n  dup6\n    /* \"#utility.yul\":3074:3092   */\n  lt\n    /* \"#utility.yul\":3071:3120   */\n  iszero\n  tag_66\n  jumpi\n    /* \"#utility.yul\":3110:3118   */\n  dup2\n    /* \"#utility.yul\":3095:3118   */\n  swap1\n  pop\n    /* \"#utility.yul\":3071:3120   */\ntag_66:\n    /* \"#utility.yul\":3133:3213   */\n  tag_67\n    /* \"#utility.yul\":3189:3211   */\n  tag_68\n    /* \"#utility.yul\":3207:3210   */\n  dup6\n    /* \"#utility.yul\":3189:3211   */\n  tag_13\n  jump\t// in\ntag_68:\n    /* \"#utility.yul\":3179:3187   */\n  dup4\n    /* \"#utility.yul\":3175:3212   */\n  add\n    /* \"#utility.yul\":3162:3173   */\n  dup3\n    /* \"#utility.yul\":3133:3213   */\n  tag_23\n  jump\t// in\ntag_67:\n    /* \"#utility.yul\":2792:3223   */\n  pop\n  pop\n    /* \"#utility.yul\":2777:3223   */\ntag_63:\n    /* \"#utility.yul\":2687:3230   */\n  pop\n  pop\n  pop\n  jump\t// out\n    /* \"#utility.yul\":3236:3353   */\ntag_25:\n    /* \"#utility.yul\":3290:3298   */\n  0x00\n    /* \"#utility.yul\":3340:3345   */\n  dup3\n    /* \"#utility.yul\":3334:3338   */\n  dup3\n    /* \"#utility.yul\":3330:3346   */\n  shr\n    /* \"#utility.yul\":3309:3346   */\n  swap1\n  pop\n    /* \"#utility.yul\":3236:3353   */\n  swap3\n  swap2\n  pop\n  pop\n  jump\t// out\n    /* \"#utility.yul\":3359:3528   */\ntag_26:\n    /* \"#utility.yul\":3403:3409   */\n  0x00\n    /* \"#utility.yul\":3436:3487   */\n  tag_71\n    /* \"#utility.yul\":3484:3485   */\n  0x00\n    /* \"#utility.yul\":3480:3486   */\n  not\n    /* \"#utility.yul\":3472:3477   */\n  dup5\n    /* \"#utility.yul\":3469:3470   */\n  0x08\n    /* \"#utility.yul\":3465:3478   */\n  mul\n    /* \"#utility.yul\":3436:3487   */\n  tag_25\n  jump\t// in\ntag_71:\n    /* \"#utility.yul\":3432:3488   */\n  not\n    /* \"#utility.yul\":3517:3521   */\n  dup1\n    /* \"#utility.yul\":3511:3515   */\n  dup4\n    /* \"#utility.yul\":3507:3522   */\n  and\n    /* \"#utility.yul\":3497:3522   */\n  swap2\n  pop\n    /* \"#utility.yul\":3410:3528   */\n  pop\n    /* \"#utility.yul\":3359:3528   */\n  swap3\n  swap2\n  pop\n  pop\n  jump\t// out\n    /* \"#utility.yul\":3533:3828   */\ntag_27:\n    /* \"#utility.yul\":3609:3613   */\n  0x00\n    /* \"#utility.yul\":3755:3784   */\n  tag_73\n    /* \"#utility.yul\":3780:3783   */\n  dup4\n    /* \"#utility.yul\":3774:3778   */\n  dup4\n    /* \"#utility.yul\":3755:3784   */\n  tag_26\n  jump\t// in\ntag_73:\n    /* \"#utility.yul\":3747:3784   */\n  swap2\n  pop\n    /* \"#utility.yul\":3817:3820   */\n  dup3\n    /* \"#utility.yul\":3814:3815   */\n  0x02\n    /* \"#utility.yul\":3810:3821   */\n  mul\n    /* \"#utility.yul\":3804:3808   */\n  dup3\n    /* \"#utility.yul\":3801:3822   */\n  or\n    /* \"#utility.yul\":3793:3822   */\n  swap1\n  pop\n    /* \"#utility.yul\":3533:3828   */\n  swap3\n  swap2\n  pop\n  pop\n  jump\t// out\n    /* \"#utility.yul\":3833:5228   */\ntag_2:\n    /* \"#utility.yul\":3950:3987   */\n  tag_75\n    /* \"#utility.yul\":3983:3986   */\n  dup3\n    /* \"#utility.yul\":3950:3987   */\n  tag_8\n  jump\t// in\ntag_75:\n    /* \"#utility.yul\":4052:4070   */\n  0xffffffffffffffff\n    /* \"#utility.yul\":4044:4050   */\n  dup2\n    /* \"#utility.yul\":4041:4071   */\n  gt\n    /* \"#utility.yul\":4038:4094   */\n  iszero\n  tag_76\n  jumpi\n    /* \"#utility.yul\":4074:4092   */\n  tag_77\n  tag_9\n  jump\t// in\ntag_77:\n    /* \"#utility.yul\":4038:4094   */\ntag_76:\n    /* \"#utility.yul\":4118:4156   */\n  tag_78\n    /* \"#utility.yul\":4150:4154   */\n  dup3\n    /* \"#utility.yul\":4144:4155   */\n  sload\n    /* \"#utility.yul\":4118:4156   */\n  tag_11\n  jump\t// in\ntag_78:\n    /* \"#utility.yul\":4203:4270   */\n  tag_79\n    /* \"#utility.yul\":4263:4269   */\n  dup3\n    /* \"#utility.yul\":4255:4261   */\n  dup3\n    /* \"#utility.yul\":4249:4253   */\n  dup6\n    /* \"#utility.yul\":4203:4270   */\n  tag_24\n  jump\t// in\ntag_79:\n    /* \"#utility.yul\":4297:4298   */\n  0x00\n    /* \"#utility.yul\":4321:4325   */\n  0x20\n    /* \"#utility.yul\":4308:4325   */\n  swap1\n  pop\n    /* \"#utility.yul\":4353:4355   */\n  0x1f\n    /* \"#utility.yul\":4345:4351   */\n  dup4\n    /* \"#utility.yul\":4342:4356   */\n  gt\n    /* \"#utility.yul\":4370:4371   */\n  0x01\n    /* \"#utility.yul\":4365:4983   */\n  dup2\n  eq\n  tag_81\n  jumpi\n    /* \"#utility.yul\":5027:5028   */\n  0x00\n    /* \"#utility.yul\":5044:5050   */\n  dup5\n    /* \"#utility.yul\":5041:5118   */\n  iszero\n  tag_82\n  jumpi\n    /* \"#utility.yul\":5093:5102   */\n  dup3\n    /* \"#utility.yul\":5088:5091   */\n  dup8\n    /* \"#utility.yul\":5084:5103   */\n  add\n    /* \"#utility.yul\":5078:5104   */\n  mload\n    /* \"#utility.yul\":5069:5104   */\n  swap1\n  pop\n    /* \"#utility.yul\":5041:5118   */\ntag_82:\n    /* \"#utility.yul\":5144:5211   */\n  tag_83\n    /* \"#utility.yul\":5204:5210   */\n  dup6\n    /* \"#utility.yul\":5197:5202   */\n  dup3\n    /* \"#utility.yul\":5144:5211   */\n  tag_27\n  jump\t// in\ntag_83:\n    /* \"#utility.yul\":5138:5142   */\n  dup7\n    /* \"#utility.yul\":5131:5212   */\n  sstore\n    /* \"#utility.yul\":5000:5222   */\n  pop\n    /* \"#utility.yul\":4335:5222   */\n  jump(tag_80)\n    /* \"#utility.yul\":4365:4983   */\ntag_81:\n    /* \"#utility.yul\":4417:4421   */\n  0x1f\n    /* \"#utility.yul\":4413:4422   */\n  not\n    /* \"#utility.yul\":4405:4411   */\n  dup5\n    /* \"#utility.yul\":4401:4423   */\n  and\n    /* \"#utility.yul\":4451:4488   */\n  tag_84\n    /* \"#utility.yul\":4483:4487   */\n  dup7\n    /* \"#utility.yul\":4451:4488   */\n  tag_12\n  jump\t// in\ntag_84:\n    /* \"#utility.yul\":4510:4511   */\n  0x00\n    /* \"#utility.yul\":4524:4732   */\ntag_85:\n    /* \"#utility.yul\":4538:4545   */\n  dup3\n    /* \"#utility.yul\":4535:4536   */\n  dup2\n    /* \"#utility.yul\":4532:4546   */\n  lt\n    /* \"#utility.yul\":4524:4732   */\n  iszero\n  tag_87\n  jumpi\n    /* \"#utility.yul\":4617:4626   */\n  dup5\n    /* \"#utility.yul\":4612:4615   */\n  dup10\n    /* \"#utility.yul\":4608:4627   */\n  add\n    /* \"#utility.yul\":4602:4628   */\n  mload\n    /* \"#utility.yul\":4594:4600   */\n  dup3\n    /* \"#utility.yul\":4587:4629   */\n  sstore\n    /* \"#utility.yul\":4668:4669   */\n  0x01\n    /* \"#utility.yul\":4660:4666   */\n  dup3\n    /* \"#utility.yul\":4656:4670   */\n  add\n    /* \"#utility.yul\":4646:4670   */\n  swap2\n  pop\n    /* \"#utility.yul\":4715:4717   */\n  0x20\n    /* \"#utility.yul\":4704:4713   */\n  dup6\n    /* \"#utility.yul\":4700:4718   */\n  add\n    /* \"#utility.yul\":4687:4718   */\n  swap5\n  pop\n    /* \"#utility.yul\":4561:4565   */\n  0x20\n    /* \"#utility.yul\":4558:4559   */\n  dup2\n    /* \"#utility.yul\":4554:4566   */\n  add\n    /* \"#utility.yul\":4549:4566   */\n  swap1\n  pop\n    /* \"#utility.yul\":4524:4732   */\n  jump(tag_85)\ntag_87:\n    /* \"#utility.yul\":4760:4766   */\n  dup7\n    /* \"#utility.yul\":4751:4758   */\n  dup4\n    /* \"#utility.yul\":4748:4767   */\n  lt\n    /* \"#utility.yul\":4745:4924   */\n  iszero\n  tag_88\n  jumpi\n    /* \"#utility.yul\":4818:4827   */\n  dup5\n    /* \"#utility.yul\":4813:4816   */\n  dup10\n    /* \"#utility.yul\":4809:4828   */\n  add\n    /* \"#utility.yul\":4803:4829   */\n  mload\n    /* \"#utility.yul\":4861:4909   */\n  tag_89\n    /* \"#utility.yul\":4903:4907   */\n  0x1f\n    /* \"#utility.yul\":4895:4901   */\n  dup10\n    /* \"#utility.yul\":4891:4908   */\n  and\n    /* \"#utility.yul\":4880:4889   */\n  dup3\n    /* \"#utility.yul\":4861:4909   */\n  tag_26\n  jump\t// in\ntag_89:\n    /* \"#utility.yul\":4853:4859   */\n  dup4\n    /* \"#utility.yul\":4846:4910   */\n  sstore\n    /* \"#utility.yul\":4768:4924   */\n  pop\n    /* \"#utility.yul\":4745:4924   */\ntag_88:\n    /* \"#utility.yul\":4970:4971   */\n  0x01\n    /* \"#utility.yul\":4966:4967   */\n  0x02\n    /* \"#utility.yul\":4958:4964   */\n  dup9\n    /* \"#utility.yul\":4954:4968   */\n  mul\n    /* \"#utility.yul\":4950:4972   */\n  add\n    /* \"#utility.yul\":4944:4948   */\n  dup9\n    /* \"#utility.yul\":4937:4973   */\n  sstore\n    /* \"#utility.yul\":4372:4983   */\n  pop\n  pop\n  pop\n    /* \"#utility.yul\":4335:5222   */\ntag_80:\n  pop\n    /* \"#utility.yul\":3925:5228   */\n  pop\n  pop\n  pop\n    /* \"#utility.yul\":3833:5228   */\n  pop\n  pop\n  jump\t// out\n    /* \"dynamic_nft/erc20.sol\":564:2788  contract erc20 is IERC20{... */\ntag_7:\n  dataSize(sub_0)\n  dup1\n  dataOffset(sub_0)\n  0x00\n  codecopy\n  0x00\n  return\nstop\n\nsub_0: assembly {\n        /* \"dynamic_nft/erc20.sol\":564:2788  contract erc20 is IERC20{... */\n      mstore(0x40, 0x80)\n      callvalue\n      dup1\n      iszero\n      tag_1\n      jumpi\n      0x00\n      dup1\n      revert\n    tag_1:\n      pop\n      jumpi(tag_2, lt(calldatasize, 0x04))\n      shr(0xe0, calldataload(0x00))\n      dup1\n      0x70a08231\n      gt\n      tag_14\n      jumpi\n      dup1\n      0x70a08231\n      eq\n      tag_8\n      jumpi\n      dup1\n      0x95d89b41\n      eq\n      tag_9\n      jumpi\n      dup1\n      0xa0712d68\n      eq\n      tag_10\n      jumpi\n      dup1\n      0xa77a8230\n      eq\n      tag_11\n      jumpi\n      dup1\n      0xa9059cbb\n      eq\n      tag_12\n      jumpi\n      dup1\n      0xe1f21c67\n      eq\n      tag_13\n      jumpi\n      jump(tag_2)\n    tag_14:\n      dup1\n      0x06fdde03\n      eq\n      tag_3\n      jumpi\n      dup1\n      0x18160ddd\n      eq\n      tag_4\n      jumpi\n      dup1\n      0x23b872dd\n      eq\n      tag_5\n      jumpi\n      dup1\n      0x313ce567\n      eq\n      tag_6\n      jumpi\n      dup1\n      0x42966c68\n      eq\n      tag_7\n      jumpi\n    tag_2:\n      0x00\n      dup1\n      revert\n        /* \"dynamic_nft/erc20.sol\":595:624  string public  name = \"EthTK\" */\n    tag_3:\n      tag_15\n      tag_16\n      jump\t// in\n    tag_15:\n      mload(0x40)\n      tag_17\n      swap2\n      swap1\n      tag_18\n      jump\t// in\n    tag_17:\n      mload(0x40)\n      dup1\n      swap2\n      sub\n      swap1\n      return\n        /* \"dynamic_nft/erc20.sol\":1024:1121  function totalSupply() public override view returns(uint){... */\n    tag_4:\n      tag_19\n      tag_20\n      jump\t// in\n    tag_19:\n      mload(0x40)\n      tag_21\n      swap2\n      swap1\n      tag_22\n      jump\t// in\n    tag_21:\n      mload(0x40)\n      dup1\n      swap2\n      sub\n      swap1\n      return\n        /* \"dynamic_nft/erc20.sol\":2424:2785  function transferFrom(address _from,address _to,uint _value) public returns (bool){... */\n    tag_5:\n      tag_23\n      0x04\n      dup1\n      calldatasize\n      sub\n      dup2\n      add\n      swap1\n      tag_24\n      swap2\n      swap1\n      tag_25\n      jump\t// in\n    tag_24:\n      tag_26\n      jump\t// in\n    tag_23:\n      mload(0x40)\n      tag_27\n      swap2\n      swap1\n      tag_28\n      jump\t// in\n    tag_27:\n      mload(0x40)\n      dup1\n      swap2\n      sub\n      swap1\n      return\n        /* \"dynamic_nft/erc20.sol\":666:695  uint public  decimals = 10000 */\n    tag_6:\n      tag_29\n      tag_30\n      jump\t// in\n    tag_29:\n      mload(0x40)\n      tag_31\n      swap2\n      swap1\n      tag_22\n      jump\t// in\n    tag_31:\n      mload(0x40)\n      dup1\n      swap2\n      sub\n      swap1\n      return\n        /* \"dynamic_nft/erc20.sol\":1852:2017  function burn(uint _qty) public  onlyAdmin returns(uint){... */\n    tag_7:\n      tag_32\n      0x04\n      dup1\n      calldatasize\n      sub\n      dup2\n      add\n      swap1\n      tag_33\n      swap2\n      swap1\n      tag_34\n      jump\t// in\n    tag_33:\n      tag_35\n      jump\t// in\n    tag_32:\n      mload(0x40)\n      tag_36\n      swap2\n      swap1\n      tag_22\n      jump\t// in\n    tag_36:\n      mload(0x40)\n      dup1\n      swap2\n      sub\n      swap1\n      return\n        /* \"dynamic_nft/erc20.sol\":1129:1248  function balanceOf(address tokenOwner) public override view returns(uint){... */\n    tag_8:\n      tag_37\n      0x04\n      dup1\n      calldatasize\n      sub\n      dup2\n      add\n      swap1\n      tag_38\n      swap2\n      swap1\n      tag_39\n      jump\t// in\n    tag_38:\n      tag_40\n      jump\t// in\n    tag_37:\n      mload(0x40)\n      tag_41\n      swap2\n      swap1\n      tag_22\n      jump\t// in\n    tag_41:\n      mload(0x40)\n      dup1\n      swap2\n      sub\n      swap1\n      return\n        /* \"dynamic_nft/erc20.sol\":631:659  string public symbol = 'ETK' */\n    tag_9:\n      tag_42\n      tag_43\n      jump\t// in\n    tag_42:\n      mload(0x40)\n      tag_44\n      swap2\n      swap1\n      tag_18\n      jump\t// in\n    tag_44:\n      mload(0x40)\n      dup1\n      swap2\n      sub\n      swap1\n      return\n        /* \"dynamic_nft/erc20.sol\":1689:1844  function mint(uint _qty) public  returns(uint){... */\n    tag_10:\n      tag_45\n      0x04\n      dup1\n      calldatasize\n      sub\n      dup2\n      add\n      swap1\n      tag_46\n      swap2\n      swap1\n      tag_34\n      jump\t// in\n    tag_46:\n      tag_47\n      jump\t// in\n    tag_45:\n      mload(0x40)\n      tag_48\n      swap2\n      swap1\n      tag_22\n      jump\t// in\n    tag_48:\n      mload(0x40)\n      dup1\n      swap2\n      sub\n      swap1\n      return\n        /* \"dynamic_nft/erc20.sol\":2025:2153  function allowence(address _owner,address _spender) public view returns(uint){... */\n    tag_11:\n      tag_49\n      0x04\n      dup1\n      calldatasize\n      sub\n      dup2\n      add\n      swap1\n      tag_50\n      swap2\n      swap1\n      tag_51\n      jump\t// in\n    tag_50:\n      tag_52\n      jump\t// in\n    tag_49:\n      mload(0x40)\n      tag_53\n      swap2\n      swap1\n      tag_22\n      jump\t// in\n    tag_53:\n      mload(0x40)\n      dup1\n      swap2\n      sub\n      swap1\n      return\n        /* \"dynamic_nft/erc20.sol\":1256:1559  function transfer(address receiver,uint numTokens) public override returns(bool){... */\n    tag_12:\n      tag_54\n      0x04\n      dup1\n      calldatasize\n      sub\n      dup2\n      add\n      swap1\n      tag_55\n      swap2\n      swap1\n      tag_56\n      jump\t// in\n    tag_55:\n      tag_57\n      jump\t// in\n    tag_54:\n      mload(0x40)\n      tag_58\n      swap2\n      swap1\n      tag_28\n      jump\t// in\n    tag_58:\n      mload(0x40)\n      dup1\n      swap2\n      sub\n      swap1\n      return\n        /* \"dynamic_nft/erc20.sol\":2161:2367  function approve(address _owner,address _spender,uint _value) public returns(uint){... */\n    tag_13:\n      tag_59\n      0x04\n      dup1\n      calldatasize\n      sub\n      dup2\n      add\n      swap1\n      tag_60\n      swap2\n      swap1\n      tag_25\n      jump\t// in\n    tag_60:\n      tag_61\n      jump\t// in\n    tag_59:\n      mload(0x40)\n      tag_62\n      swap2\n      swap1\n      tag_22\n      jump\t// in\n    tag_62:\n      mload(0x40)\n      dup1\n      swap2\n      sub\n      swap1\n      return\n        /* \"dynamic_nft/erc20.sol\":595:624  string public  name = \"EthTK\" */\n    tag_16:\n      0x00\n      dup1\n      sload\n      tag_63\n      swap1\n      tag_64\n      jump\t// in\n    tag_63:\n      dup1\n      0x1f\n      add\n      0x20\n      dup1\n      swap2\n      div\n      mul\n      0x20\n      add\n      mload(0x40)\n      swap1\n      dup2\n      add\n      0x40\n      mstore\n      dup1\n      swap3\n      swap2\n      swap1\n      dup2\n      dup2\n      mstore\n      0x20\n      add\n      dup3\n      dup1\n      sload\n      tag_65\n      swap1\n      tag_64\n      jump\t// in\n    tag_65:\n      dup1\n      iszero\n      tag_66\n      jumpi\n      dup1\n      0x1f\n      lt\n      tag_67\n      jumpi\n      0x0100\n      dup1\n      dup4\n      sload\n      div\n      mul\n      dup4\n      mstore\n      swap2\n      0x20\n      add\n      swap2\n      jump(tag_66)\n    tag_67:\n      dup3\n      add\n      swap2\n      swap1\n      0x00\n      mstore\n      keccak256(0x00, 0x20)\n      swap1\n    tag_68:\n      dup2\n      sload\n      dup2\n      mstore\n      swap1\n      0x01\n      add\n      swap1\n      0x20\n      add\n      dup1\n      dup4\n      gt\n      tag_68\n      jumpi\n      dup3\n      swap1\n      sub\n      0x1f\n      and\n      dup3\n      add\n      swap2\n    tag_66:\n      pop\n      pop\n      pop\n      pop\n      pop\n      dup2\n      jump\t// out\n        /* \"dynamic_nft/erc20.sol\":1024:1121  function totalSupply() public override view returns(uint){... */\n    tag_20:\n        /* \"dynamic_nft/erc20.sol\":1076:1080  uint */\n      0x00\n        /* \"dynamic_nft/erc20.sol\":1099:1111  totalSupply_ */\n      sload(0x05)\n        /* \"dynamic_nft/erc20.sol\":1092:1111  return totalSupply_ */\n      swap1\n      pop\n        /* \"dynamic_nft/erc20.sol\":1024:1121  function totalSupply() public override view returns(uint){... */\n      swap1\n      jump\t// out\n        /* \"dynamic_nft/erc20.sol\":2424:2785  function transferFrom(address _from,address _to,uint _value) public returns (bool){... */\n    tag_26:\n        /* \"dynamic_nft/erc20.sol\":2501:2505  bool */\n      0x00\n        /* \"dynamic_nft/erc20.sol\":2517:2527  uint allow */\n      dup1\n        /* \"dynamic_nft/erc20.sol\":2530:2537  allowed */\n      0x04\n        /* \"dynamic_nft/erc20.sol\":2530:2544  allowed[_from] */\n      0x00\n        /* \"dynamic_nft/erc20.sol\":2538:2543  _from */\n      dup7\n        /* \"dynamic_nft/erc20.sol\":2530:2544  allowed[_from] */\n      0xffffffffffffffffffffffffffffffffffffffff\n      and\n      0xffffffffffffffffffffffffffffffffffffffff\n      and\n      dup2\n      mstore\n      0x20\n      add\n      swap1\n      dup2\n      mstore\n      0x20\n      add\n      0x00\n      keccak256\n        /* \"dynamic_nft/erc20.sol\":2530:2556  allowed[_from][msg.sender] */\n      0x00\n        /* \"dynamic_nft/erc20.sol\":2545:2555  msg.sender */\n      caller\n        /* \"dynamic_nft/erc20.sol\":2530:2556  allowed[_from][msg.sender] */\n      0xffffffffffffffffffffffffffffffffffffffff\n      and\n      0xffffffffffffffffffffffffffffffffffffffff\n      and\n      dup2\n      mstore\n      0x20\n      add\n      swap1\n      dup2\n      mstore\n      0x20\n      add\n      0x00\n      keccak256\n      sload\n        /* \"dynamic_nft/erc20.sol\":2517:2556  uint allow = allowed[_from][msg.sender] */\n      swap1\n      pop\n        /* \"dynamic_nft/erc20.sol\":2592:2598  _value */\n      dup3\n        /* \"dynamic_nft/erc20.sol\":2575:2583  balances */\n      0x03\n        /* \"dynamic_nft/erc20.sol\":2575:2590  balances[_from] */\n      0x00\n        /* \"dynamic_nft/erc20.sol\":2584:2589  _from */\n      dup8\n        /* \"dynamic_nft/erc20.sol\":2575:2590  balances[_from] */\n      0xffffffffffffffffffffffffffffffffffffffff\n      and\n      0xffffffffffffffffffffffffffffffffffffffff\n      and\n      dup2\n      mstore\n      0x20\n      add\n      swap1\n      dup2\n      mstore\n      0x20\n      add\n      0x00\n      keccak256\n      sload\n        /* \"dynamic_nft/erc20.sol\":2575:2598  balances[_from]>=_value */\n      lt\n      iszero\n        /* \"dynamic_nft/erc20.sol\":2575:2615  balances[_from]>=_value && allow>=_value */\n      dup1\n      iszero\n      tag_71\n      jumpi\n      pop\n        /* \"dynamic_nft/erc20.sol\":2609:2615  _value */\n      dup3\n        /* \"dynamic_nft/erc20.sol\":2602:2607  allow */\n      dup2\n        /* \"dynamic_nft/erc20.sol\":2602:2615  allow>=_value */\n      lt\n      iszero\n        /* \"dynamic_nft/erc20.sol\":2575:2615  balances[_from]>=_value && allow>=_value */\n    tag_71:\n        /* \"dynamic_nft/erc20.sol\":2567:2616  require(balances[_from]>=_value && allow>=_value) */\n      tag_72\n      jumpi\n      0x00\n      dup1\n      revert\n    tag_72:\n        /* \"dynamic_nft/erc20.sol\":2644:2650  _value */\n      dup3\n        /* \"dynamic_nft/erc20.sol\":2627:2635  balances */\n      0x03\n        /* \"dynamic_nft/erc20.sol\":2627:2640  balances[_to] */\n      0x00\n        /* \"dynamic_nft/erc20.sol\":2636:2639  _to */\n      dup7\n        /* \"dynamic_nft/erc20.sol\":2627:2640  balances[_to] */\n      0xffffffffffffffffffffffffffffffffffffffff\n      and\n      0xffffffffffffffffffffffffffffffffffffffff\n      and\n      dup2\n      mstore\n      0x20\n      add\n      swap1\n      dup2\n      mstore\n      0x20\n      add\n      0x00\n      keccak256\n      0x00\n        /* \"dynamic_nft/erc20.sol\":2627:2650  balances[_to] += _value */\n      dup3\n      dup3\n      sload\n      tag_73\n      swap2\n      swap1\n      tag_74\n      jump\t// in\n    tag_73:\n      swap3\n      pop\n      pop\n      dup2\n      swap1\n      sstore\n      pop\n        /* \"dynamic_nft/erc20.sol\":2680:2686  _value */\n      dup3\n        /* \"dynamic_nft/erc20.sol\":2661:2669  balances */\n      0x03\n        /* \"dynamic_nft/erc20.sol\":2661:2676  balances[_from] */\n      0x00\n        /* \"dynamic_nft/erc20.sol\":2670:2675  _from */\n      dup8\n        /* \"dynamic_nft/erc20.sol\":2661:2676  balances[_from] */\n      0xffffffffffffffffffffffffffffffffffffffff\n      and\n      0xffffffffffffffffffffffffffffffffffffffff\n      and\n      dup2\n      mstore\n      0x20\n      add\n      swap1\n      dup2\n      mstore\n      0x20\n      add\n      0x00\n      keccak256\n      0x00\n        /* \"dynamic_nft/erc20.sol\":2661:2686  balances[_from] -= _value */\n      dup3\n      dup3\n      sload\n      tag_75\n      swap2\n      swap1\n      tag_76\n      jump\t// in\n    tag_75:\n      swap3\n      pop\n      pop\n      dup2\n      swap1\n      sstore\n      pop\n        /* \"dynamic_nft/erc20.sol\":2726:2732  _value */\n      dup3\n        /* \"dynamic_nft/erc20.sol\":2697:2704  allowed */\n      0x04\n        /* \"dynamic_nft/erc20.sol\":2697:2711  allowed[_from] */\n      0x00\n        /* \"dynamic_nft/erc20.sol\":2705:2710  _from */\n      dup8\n        /* \"dynamic_nft/erc20.sol\":2697:2711  allowed[_from] */\n      0xffffffffffffffffffffffffffffffffffffffff\n      and\n      0xffffffffffffffffffffffffffffffffffffffff\n      and\n      dup2\n      mstore\n      0x20\n      add\n      swap1\n      dup2\n      mstore\n      0x20\n      add\n      0x00\n      keccak256\n        /* \"dynamic_nft/erc20.sol\":2697:2723  allowed[_from][msg.sender] */\n      0x00\n        /* \"dynamic_nft/erc20.sol\":2712:2722  msg.sender */\n      caller\n        /* \"dynamic_nft/erc20.sol\":2697:2723  allowed[_from][msg.sender] */\n      0xffffffffffffffffffffffffffffffffffffffff\n      and\n      0xffffffffffffffffffffffffffffffffffffffff\n      and\n      dup2\n      mstore\n      0x20\n      add\n      swap1\n      dup2\n      mstore\n      0x20\n      add\n      0x00\n      keccak256\n      0x00\n        /* \"dynamic_nft/erc20.sol\":2697:2732  allowed[_from][msg.sender] -=_value */\n      dup3\n      dup3\n      sload\n      tag_77\n      swap2\n      swap1\n      tag_76\n      jump\t// in\n    tag_77:\n      swap3\n      pop\n      pop\n      dup2\n      swap1\n      sstore\n      pop\n        /* \"dynamic_nft/erc20.sol\":2763:2767  true */\n      0x01\n        /* \"dynamic_nft/erc20.sol\":2756:2767  return true */\n      swap2\n      pop\n      pop\n        /* \"dynamic_nft/erc20.sol\":2424:2785  function transferFrom(address _from,address _to,uint _value) public returns (bool){... */\n      swap4\n      swap3\n      pop\n      pop\n      pop\n      jump\t// out\n        /* \"dynamic_nft/erc20.sol\":666:695  uint public  decimals = 10000 */\n    tag_30:\n      sload(0x02)\n      dup2\n      jump\t// out\n        /* \"dynamic_nft/erc20.sol\":1852:2017  function burn(uint _qty) public  onlyAdmin returns(uint){... */\n    tag_35:\n        /* \"dynamic_nft/erc20.sol\":1903:1907  uint */\n      0x00\n        /* \"dynamic_nft/erc20.sol\":1618:1623  admin */\n      0x06\n      0x00\n      swap1\n      sload\n      swap1\n      0x0100\n      exp\n      swap1\n      div\n      0xffffffffffffffffffffffffffffffffffffffff\n      and\n        /* \"dynamic_nft/erc20.sol\":1604:1623  msg.sender == admin */\n      0xffffffffffffffffffffffffffffffffffffffff\n      and\n        /* \"dynamic_nft/erc20.sol\":1604:1614  msg.sender */\n      caller\n        /* \"dynamic_nft/erc20.sol\":1604:1623  msg.sender == admin */\n      0xffffffffffffffffffffffffffffffffffffffff\n      and\n      eq\n        /* \"dynamic_nft/erc20.sol\":1596:1661  require(msg.sender == admin , \"only admin can run this function\") */\n      tag_79\n      jumpi\n      mload(0x40)\n      0x08c379a000000000000000000000000000000000000000000000000000000000\n      dup2\n      mstore\n      0x04\n      add\n      tag_80\n      swap1\n      tag_81\n      jump\t// in\n    tag_80:\n      mload(0x40)\n      dup1\n      swap2\n      sub\n      swap1\n      revert\n    tag_79:\n        /* \"dynamic_nft/erc20.sol\":1935:1939  _qty */\n      dup2\n        /* \"dynamic_nft/erc20.sol\":1919:1931  totalSupply_ */\n      0x05\n      0x00\n        /* \"dynamic_nft/erc20.sol\":1919:1939  totalSupply_ -= _qty */\n      dup3\n      dup3\n      sload\n      tag_83\n      swap2\n      swap1\n      tag_76\n      jump\t// in\n    tag_83:\n      swap3\n      pop\n      pop\n      dup2\n      swap1\n      sstore\n      pop\n        /* \"dynamic_nft/erc20.sol\":1974:1978  _qty */\n      dup2\n        /* \"dynamic_nft/erc20.sol\":1950:1958  balances */\n      0x03\n        /* \"dynamic_nft/erc20.sol\":1950:1970  balances[msg.sender] */\n      0x00\n        /* \"dynamic_nft/erc20.sol\":1959:1969  msg.sender */\n      caller\n        /* \"dynamic_nft/erc20.sol\":1950:1970  balances[msg.sender] */\n      0xffffffffffffffffffffffffffffffffffffffff\n      and\n      0xffffffffffffffffffffffffffffffffffffffff\n      and\n      dup2\n      mstore\n      0x20\n      add\n      swap1\n      dup2\n      mstore\n      0x20\n      add\n      0x00\n      keccak256\n      0x00\n        /* \"dynamic_nft/erc20.sol\":1950:1978  balances[msg.sender] -= _qty */\n      dup3\n      dup3\n      sload\n      tag_84\n      swap2\n      swap1\n      tag_76\n      jump\t// in\n    tag_84:\n      swap3\n      pop\n      pop\n      dup2\n      swap1\n      sstore\n      pop\n        /* \"dynamic_nft/erc20.sol\":1996:2008  totalSupply_ */\n      sload(0x05)\n        /* \"dynamic_nft/erc20.sol\":1989:2008  return totalSupply_ */\n      swap1\n      pop\n        /* \"dynamic_nft/erc20.sol\":1852:2017  function burn(uint _qty) public  onlyAdmin returns(uint){... */\n      swap2\n      swap1\n      pop\n      jump\t// out\n        /* \"dynamic_nft/erc20.sol\":1129:1248  function balanceOf(address tokenOwner) public override view returns(uint){... */\n    tag_40:\n        /* \"dynamic_nft/erc20.sol\":1197:1201  uint */\n      0x00\n        /* \"dynamic_nft/erc20.sol\":1220:1228  balances */\n      0x03\n        /* \"dynamic_nft/erc20.sol\":1220:1240  balances[tokenOwner] */\n      0x00\n        /* \"dynamic_nft/erc20.sol\":1229:1239  tokenOwner */\n      dup4\n        /* \"dynamic_nft/erc20.sol\":1220:1240  balances[tokenOwner] */\n      0xffffffffffffffffffffffffffffffffffffffff\n      and\n      0xffffffffffffffffffffffffffffffffffffffff\n      and\n      dup2\n      mstore\n      0x20\n      add\n      swap1\n      dup2\n      mstore\n      0x20\n      add\n      0x00\n      keccak256\n      sload\n        /* \"dynamic_nft/erc20.sol\":1213:1240  return balances[tokenOwner] */\n      swap1\n      pop\n        /* \"dynamic_nft/erc20.sol\":1129:1248  function balanceOf(address tokenOwner) public override view returns(uint){... */\n      swap2\n      swap1\n      pop\n      jump\t// out\n        /* \"dynamic_nft/erc20.sol\":631:659  string public symbol = 'ETK' */\n    tag_43:\n      0x01\n      dup1\n      sload\n      tag_86\n      swap1\n      tag_64\n      jump\t// in\n    tag_86:\n      dup1\n      0x1f\n      add\n      0x20\n      dup1\n      swap2\n      div\n      mul\n      0x20\n      add\n      mload(0x40)\n      swap1\n      dup2\n      add\n      0x40\n      mstore\n      dup1\n      swap3\n      swap2\n      swap1\n      dup2\n      dup2\n      mstore\n      0x20\n      add\n      dup3\n      dup1\n      sload\n      tag_87\n      swap1\n      tag_64\n      jump\t// in\n    tag_87:\n      dup1\n      iszero\n      tag_88\n      jumpi\n      dup1\n      0x1f\n      lt\n      tag_89\n      jumpi\n      0x0100\n      dup1\n      dup4\n      sload\n      div\n      mul\n      dup4\n      mstore\n      swap2\n      0x20\n      add\n      swap2\n      jump(tag_88)\n    tag_89:\n      dup3\n      add\n      swap2\n      swap1\n      0x00\n      mstore\n      keccak256(0x00, 0x20)\n      swap1\n    tag_90:\n      dup2\n      sload\n      dup2\n      mstore\n      swap1\n      0x01\n      add\n      swap1\n      0x20\n      add\n      dup1\n      dup4\n      gt\n      tag_90\n      jumpi\n      dup3\n      swap1\n      sub\n      0x1f\n      and\n      dup3\n      add\n      swap2\n    tag_88:\n      pop\n      pop\n      pop\n      pop\n      pop\n      dup2\n      jump\t// out\n        /* \"dynamic_nft/erc20.sol\":1689:1844  function mint(uint _qty) public  returns(uint){... */\n    tag_47:\n        /* \"dynamic_nft/erc20.sol\":1730:1734  uint */\n      0x00\n        /* \"dynamic_nft/erc20.sol\":1762:1766  _qty */\n      dup2\n        /* \"dynamic_nft/erc20.sol\":1746:1758  totalSupply_ */\n      0x05\n      0x00\n        /* \"dynamic_nft/erc20.sol\":1746:1766  totalSupply_ += _qty */\n      dup3\n      dup3\n      sload\n      tag_92\n      swap2\n      swap1\n      tag_74\n      jump\t// in\n    tag_92:\n      swap3\n      pop\n      pop\n      dup2\n      swap1\n      sstore\n      pop\n        /* \"dynamic_nft/erc20.sol\":1801:1805  _qty */\n      dup2\n        /* \"dynamic_nft/erc20.sol\":1777:1785  balances */\n      0x03\n        /* \"dynamic_nft/erc20.sol\":1777:1797  balances[msg.sender] */\n      0x00\n        /* \"dynamic_nft/erc20.sol\":1786:1796  msg.sender */\n      caller\n        /* \"dynamic_nft/erc20.sol\":1777:1797  balances[msg.sender] */\n      0xffffffffffffffffffffffffffffffffffffffff\n      and\n      0xffffffffffffffffffffffffffffffffffffffff\n      and\n      dup2\n      mstore\n      0x20\n      add\n      swap1\n      dup2\n      mstore\n      0x20\n      add\n      0x00\n      keccak256\n      0x00\n        /* \"dynamic_nft/erc20.sol\":1777:1805  balances[msg.sender] += _qty */\n      dup3\n      dup3\n      sload\n      tag_93\n      swap2\n      swap1\n      tag_74\n      jump\t// in\n    tag_93:\n      swap3\n      pop\n      pop\n      dup2\n      swap1\n      sstore\n      pop\n        /* \"dynamic_nft/erc20.sol\":1823:1835  totalSupply_ */\n      sload(0x05)\n        /* \"dynamic_nft/erc20.sol\":1816:1835  return totalSupply_ */\n      swap1\n      pop\n        /* \"dynamic_nft/erc20.sol\":1689:1844  function mint(uint _qty) public  returns(uint){... */\n      swap2\n      swap1\n      pop\n      jump\t// out\n        /* \"dynamic_nft/erc20.sol\":2025:2153  function allowence(address _owner,address _spender) public view returns(uint){... */\n    tag_52:\n        /* \"dynamic_nft/erc20.sol\":2097:2101  uint */\n      0x00\n        /* \"dynamic_nft/erc20.sol\":2120:2127  allowed */\n      0x04\n        /* \"dynamic_nft/erc20.sol\":2120:2135  allowed[_owner] */\n      0x00\n        /* \"dynamic_nft/erc20.sol\":2128:2134  _owner */\n      dup5\n        /* \"dynamic_nft/erc20.sol\":2120:2135  allowed[_owner] */\n      0xffffffffffffffffffffffffffffffffffffffff\n      and\n      0xffffffffffffffffffffffffffffffffffffffff\n      and\n      dup2\n      mstore\n      0x20\n      add\n      swap1\n      dup2\n      mstore\n      0x20\n      add\n      0x00\n      keccak256\n        /* \"dynamic_nft/erc20.sol\":2120:2145  allowed[_owner][_spender] */\n      0x00\n        /* \"dynamic_nft/erc20.sol\":2136:2144  _spender */\n      dup4\n        /* \"dynamic_nft/erc20.sol\":2120:2145  allowed[_owner][_spender] */\n      0xffffffffffffffffffffffffffffffffffffffff\n      and\n      0xffffffffffffffffffffffffffffffffffffffff\n      and\n      dup2\n      mstore\n      0x20\n      add\n      swap1\n      dup2\n      mstore\n      0x20\n      add\n      0x00\n      keccak256\n      sload\n        /* \"dynamic_nft/erc20.sol\":2113:2145  return allowed[_owner][_spender] */\n      swap1\n      pop\n        /* \"dynamic_nft/erc20.sol\":2025:2153  function allowence(address _owner,address _spender) public view returns(uint){... */\n      swap3\n      swap2\n      pop\n      pop\n      jump\t// out\n        /* \"dynamic_nft/erc20.sol\":1256:1559  function transfer(address receiver,uint numTokens) public override returns(bool){... */\n    tag_57:\n        /* \"dynamic_nft/erc20.sol\":1331:1335  bool */\n      0x00\n        /* \"dynamic_nft/erc20.sol\":1368:1376  balances */\n      0x03\n        /* \"dynamic_nft/erc20.sol\":1368:1388  balances[msg.sender] */\n      0x00\n        /* \"dynamic_nft/erc20.sol\":1377:1387  msg.sender */\n      caller\n        /* \"dynamic_nft/erc20.sol\":1368:1388  balances[msg.sender] */\n      0xffffffffffffffffffffffffffffffffffffffff\n      and\n      0xffffffffffffffffffffffffffffffffffffffff\n      and\n      dup2\n      mstore\n      0x20\n      add\n      swap1\n      dup2\n      mstore\n      0x20\n      add\n      0x00\n      keccak256\n      sload\n        /* \"dynamic_nft/erc20.sol\":1355:1364  numTokens */\n      dup3\n        /* \"dynamic_nft/erc20.sol\":1355:1388  numTokens <= balances[msg.sender] */\n      gt\n      iszero\n        /* \"dynamic_nft/erc20.sol\":1347:1389  require(numTokens <= balances[msg.sender]) */\n      tag_96\n      jumpi\n      0x00\n      dup1\n      revert\n    tag_96:\n        /* \"dynamic_nft/erc20.sol\":1423:1432  numTokens */\n      dup2\n        /* \"dynamic_nft/erc20.sol\":1400:1408  balances */\n      0x03\n        /* \"dynamic_nft/erc20.sol\":1400:1420  balances[msg.sender] */\n      0x00\n        /* \"dynamic_nft/erc20.sol\":1409:1419  msg.sender */\n      caller\n        /* \"dynamic_nft/erc20.sol\":1400:1420  balances[msg.sender] */\n      0xffffffffffffffffffffffffffffffffffffffff\n      and\n      0xffffffffffffffffffffffffffffffffffffffff\n      and\n      dup2\n      mstore\n      0x20\n      add\n      swap1\n      dup2\n      mstore\n      0x20\n      add\n      0x00\n      keccak256\n      0x00\n        /* \"dynamic_nft/erc20.sol\":1400:1432  balances[msg.sender] -=numTokens */\n      dup3\n      dup3\n      sload\n      tag_97\n      swap2\n      swap1\n      tag_76\n      jump\t// in\n    tag_97:\n      swap3\n      pop\n      pop\n      dup2\n      swap1\n      sstore\n      pop\n        /* \"dynamic_nft/erc20.sol\":1465:1474  numTokens */\n      dup2\n        /* \"dynamic_nft/erc20.sol\":1443:1451  balances */\n      0x03\n        /* \"dynamic_nft/erc20.sol\":1443:1461  balances[receiver] */\n      0x00\n        /* \"dynamic_nft/erc20.sol\":1452:1460  receiver */\n      dup6\n        /* \"dynamic_nft/erc20.sol\":1443:1461  balances[receiver] */\n      0xffffffffffffffffffffffffffffffffffffffff\n      and\n      0xffffffffffffffffffffffffffffffffffffffff\n      and\n      dup2\n      mstore\n      0x20\n      add\n      swap1\n      dup2\n      mstore\n      0x20\n      add\n      0x00\n      keccak256\n      0x00\n        /* \"dynamic_nft/erc20.sol\":1443:1474  balances[receiver] += numTokens */\n      dup3\n      dup3\n      sload\n      tag_98\n      swap2\n      swap1\n      tag_74\n      jump\t// in\n    tag_98:\n      swap3\n      pop\n      pop\n      dup2\n      swap1\n      sstore\n      pop\n        /* \"dynamic_nft/erc20.sol\":1510:1518  receiver */\n      dup3\n        /* \"dynamic_nft/erc20.sol\":1490:1529  Transfer(msg.sender,receiver,numTokens) */\n      0xffffffffffffffffffffffffffffffffffffffff\n      and\n        /* \"dynamic_nft/erc20.sol\":1499:1509  msg.sender */\n      caller\n        /* \"dynamic_nft/erc20.sol\":1490:1529  Transfer(msg.sender,receiver,numTokens) */\n      0xffffffffffffffffffffffffffffffffffffffff\n      and\n      0xddf252ad1be2c89b69c2b068fc378daa952ba7f163c4a11628f55a4df523b3ef\n        /* \"dynamic_nft/erc20.sol\":1519:1528  numTokens */\n      dup5\n        /* \"dynamic_nft/erc20.sol\":1490:1529  Transfer(msg.sender,receiver,numTokens) */\n      mload(0x40)\n      tag_99\n      swap2\n      swap1\n      tag_22\n      jump\t// in\n    tag_99:\n      mload(0x40)\n      dup1\n      swap2\n      sub\n      swap1\n      log3\n        /* \"dynamic_nft/erc20.sol\":1547:1551  true */\n      0x01\n        /* \"dynamic_nft/erc20.sol\":1540:1551  return true */\n      swap1\n      pop\n        /* \"dynamic_nft/erc20.sol\":1256:1559  function transfer(address receiver,uint numTokens) public override returns(bool){... */\n      swap3\n      swap2\n      pop\n      pop\n      jump\t// out\n        /* \"dynamic_nft/erc20.sol\":2161:2367  function approve(address _owner,address _spender,uint _value) public returns(uint){... */\n    tag_61:\n        /* \"dynamic_nft/erc20.sol\":2238:2242  uint */\n      0x00\n        /* \"dynamic_nft/erc20.sol\":2281:2287  _value */\n      dup2\n        /* \"dynamic_nft/erc20.sol\":2254:2261  allowed */\n      0x04\n        /* \"dynamic_nft/erc20.sol\":2254:2269  allowed[_owner] */\n      0x00\n        /* \"dynamic_nft/erc20.sol\":2262:2268  _owner */\n      dup7\n        /* \"dynamic_nft/erc20.sol\":2254:2269  allowed[_owner] */\n      0xffffffffffffffffffffffffffffffffffffffff\n      and\n      0xffffffffffffffffffffffffffffffffffffffff\n      and\n      dup2\n      mstore\n      0x20\n      add\n      swap1\n      dup2\n      mstore\n      0x20\n      add\n      0x00\n      keccak256\n        /* \"dynamic_nft/erc20.sol\":2254:2279  allowed[_owner][_spender] */\n      0x00\n        /* \"dynamic_nft/erc20.sol\":2270:2278  _spender */\n      dup6\n        /* \"dynamic_nft/erc20.sol\":2254:2279  allowed[_owner][_spender] */\n      0xffffffffffffffffffffffffffffffffffffffff\n      and\n      0xffffffffffffffffffffffffffffffffffffffff\n      and\n      dup2\n      mstore\n      0x20\n      add\n      swap1\n      dup2\n      mstore\n      0x20\n      add\n      0x00\n      keccak256\n        /* \"dynamic_nft/erc20.sol\":2254:2287  allowed[_owner][_spender] =_value */\n      dup2\n      swap1\n      sstore\n      pop\n        /* \"dynamic_nft/erc20.sol\":2319:2327  _spender */\n      dup3\n        /* \"dynamic_nft/erc20.sol\":2303:2335  Approval(_owner,_spender,_value) */\n      0xffffffffffffffffffffffffffffffffffffffff\n      and\n        /* \"dynamic_nft/erc20.sol\":2312:2318  _owner */\n      dup5\n        /* \"dynamic_nft/erc20.sol\":2303:2335  Approval(_owner,_spender,_value) */\n      0xffffffffffffffffffffffffffffffffffffffff\n      and\n      0x8c5be1e5ebec7d5bd14f71427d1e84f3dd0314c0f7b2291e5b200ac8c7c3b925\n        /* \"dynamic_nft/erc20.sol\":2328:2334  _value */\n      dup5\n        /* \"dynamic_nft/erc20.sol\":2303:2335  Approval(_owner,_spender,_value) */\n      mload(0x40)\n      tag_101\n      swap2\n      swap1\n      tag_22\n      jump\t// in\n    tag_101:\n      mload(0x40)\n      dup1\n      swap2\n      sub\n      swap1\n      log3\n        /* \"dynamic_nft/erc20.sol\":2353:2359  _value */\n      dup2\n        /* \"dynamic_nft/erc20.sol\":2346:2359  return _value */\n      swap1\n      pop\n        /* \"dynamic_nft/erc20.sol\":2161:2367  function approve(address _owner,address _spender,uint _value) public returns(uint){... */\n      swap4\n      swap3\n      pop\n      pop\n      pop\n      jump\t// out\n        /* \"#utility.yul\":7:106   */\n    tag_102:\n        /* \"#utility.yul\":59:65   */\n      0x00\n        /* \"#utility.yul\":93:98   */\n      dup2\n        /* \"#utility.yul\":87:99   */\n      mload\n        /* \"#utility.yul\":77:99   */\n      swap1\n      pop\n        /* \"#utility.yul\":7:106   */\n      swap2\n      swap1\n      pop\n      jump\t// out\n        /* \"#utility.yul\":112:281   */\n    tag_103:\n        /* \"#utility.yul\":196:207   */\n      0x00\n        /* \"#utility.yul\":230:236   */\n      dup3\n        /* \"#utility.yul\":225:228   */\n      dup3\n        /* \"#utility.yul\":218:237   */\n      mstore\n        /* \"#utility.yul\":270:274   */\n      0x20\n        /* \"#utility.yul\":265:268   */\n      dup3\n        /* \"#utility.yul\":261:275   */\n      add\n        /* \"#utility.yul\":246:275   */\n      swap1\n      pop\n        /* \"#utility.yul\":112:281   */\n      swap3\n      swap2\n      pop\n      pop\n      jump\t// out\n        /* \"#utility.yul\":287:533   */\n    tag_104:\n        /* \"#utility.yul\":368:369   */\n      0x00\n        /* \"#utility.yul\":378:491   */\n    tag_128:\n        /* \"#utility.yul\":392:398   */\n      dup4\n        /* \"#utility.yul\":389:390   */\n      dup2\n        /* \"#utility.yul\":386:399   */\n      lt\n        /* \"#utility.yul\":378:491   */\n      iszero\n      tag_130\n      jumpi\n        /* \"#utility.yul\":477:478   */\n      dup1\n        /* \"#utility.yul\":472:475   */\n      dup3\n        /* \"#utility.yul\":468:479   */\n      add\n        /* \"#utility.yul\":462:480   */\n      mload\n        /* \"#utility.yul\":458:459   */\n      dup2\n        /* \"#utility.yul\":453:456   */\n      dup5\n        /* \"#utility.yul\":449:460   */\n      add\n        /* \"#utility.yul\":442:481   */\n      mstore\n        /* \"#utility.yul\":414:416   */\n      0x20\n        /* \"#utility.yul\":411:412   */\n      dup2\n        /* \"#utility.yul\":407:417   */\n      add\n        /* \"#utility.yul\":402:417   */\n      swap1\n      pop\n        /* \"#utility.yul\":378:491   */\n      jump(tag_128)\n    tag_130:\n        /* \"#utility.yul\":525:526   */\n      0x00\n        /* \"#utility.yul\":516:522   */\n      dup5\n        /* \"#utility.yul\":511:514   */\n      dup5\n        /* \"#utility.yul\":507:523   */\n      add\n        /* \"#utility.yul\":500:527   */\n      mstore\n        /* \"#utility.yul\":349:533   */\n      pop\n        /* \"#utility.yul\":287:533   */\n      pop\n      pop\n      pop\n      jump\t// out\n        /* \"#utility.yul\":539:641   */\n    tag_105:\n        /* \"#utility.yul\":580:586   */\n      0x00\n        /* \"#utility.yul\":631:633   */\n      0x1f\n        /* \"#utility.yul\":627:634   */\n      not\n        /* \"#utility.yul\":622:624   */\n      0x1f\n        /* \"#utility.yul\":615:620   */\n      dup4\n        /* \"#utility.yul\":611:625   */\n      add\n        /* \"#utility.yul\":607:635   */\n      and\n        /* \"#utility.yul\":597:635   */\n      swap1\n      pop\n        /* \"#utility.yul\":539:641   */\n      swap2\n      swap1\n      pop\n      jump\t// out\n        /* \"#utility.yul\":647:1024   */\n    tag_106:\n        /* \"#utility.yul\":735:738   */\n      0x00\n        /* \"#utility.yul\":763:802   */\n      tag_133\n        /* \"#utility.yul\":796:801   */\n      dup3\n        /* \"#utility.yul\":763:802   */\n      tag_102\n      jump\t// in\n    tag_133:\n        /* \"#utility.yul\":818:889   */\n      tag_134\n        /* \"#utility.yul\":882:888   */\n      dup2\n        /* \"#utility.yul\":877:880   */\n      dup6\n        /* \"#utility.yul\":818:889   */\n      tag_103\n      jump\t// in\n    tag_134:\n        /* \"#utility.yul\":811:889   */\n      swap4\n      pop\n        /* \"#utility.yul\":898:963   */\n      tag_135\n        /* \"#utility.yul\":956:962   */\n      dup2\n        /* \"#utility.yul\":951:954   */\n      dup6\n        /* \"#utility.yul\":944:948   */\n      0x20\n        /* \"#utility.yul\":937:942   */\n      dup7\n        /* \"#utility.yul\":933:949   */\n      add\n        /* \"#utility.yul\":898:963   */\n      tag_104\n      jump\t// in\n    tag_135:\n        /* \"#utility.yul\":988:1017   */\n      tag_136\n        /* \"#utility.yul\":1010:1016   */\n      dup2\n        /* \"#utility.yul\":988:1017   */\n      tag_105\n      jump\t// in\n    tag_136:\n        /* \"#utility.yul\":983:986   */\n      dup5\n        /* \"#utility.yul\":979:1018   */\n      add\n        /* \"#utility.yul\":972:1018   */\n      swap2\n      pop\n        /* \"#utility.yul\":739:1024   */\n      pop\n        /* \"#utility.yul\":647:1024   */\n      swap3\n      swap2\n      pop\n      pop\n      jump\t// out\n        /* \"#utility.yul\":1030:1343   */\n    tag_18:\n        /* \"#utility.yul\":1143:1147   */\n      0x00\n        /* \"#utility.yul\":1181:1183   */\n      0x20\n        /* \"#utility.yul\":1170:1179   */\n      dup3\n        /* \"#utility.yul\":1166:1184   */\n      add\n        /* \"#utility.yul\":1158:1184   */\n      swap1\n      pop\n        /* \"#utility.yul\":1230:1239   */\n      dup2\n        /* \"#utility.yul\":1224:1228   */\n      dup2\n        /* \"#utility.yul\":1220:1240   */\n      sub\n        /* \"#utility.yul\":1216:1217   */\n      0x00\n        /* \"#utility.yul\":1205:1214   */\n      dup4\n        /* \"#utility.yul\":1201:1218   */\n      add\n        /* \"#utility.yul\":1194:1241   */\n      mstore\n        /* \"#utility.yul\":1258:1336   */\n      tag_138\n        /* \"#utility.yul\":1331:1335   */\n      dup2\n        /* \"#utility.yul\":1322:1328   */\n      dup5\n        /* \"#utility.yul\":1258:1336   */\n      tag_106\n      jump\t// in\n    tag_138:\n        /* \"#utility.yul\":1250:1336   */\n      swap1\n      pop\n        /* \"#utility.yul\":1030:1343   */\n      swap3\n      swap2\n      pop\n      pop\n      jump\t// out\n        /* \"#utility.yul\":1349:1426   */\n    tag_107:\n        /* \"#utility.yul\":1386:1393   */\n      0x00\n        /* \"#utility.yul\":1415:1420   */\n      dup2\n        /* \"#utility.yul\":1404:1420   */\n      swap1\n      pop\n        /* \"#utility.yul\":1349:1426   */\n      swap2\n      swap1\n      pop\n      jump\t// out\n        /* \"#utility.yul\":1432:1550   */\n    tag_108:\n        /* \"#utility.yul\":1519:1543   */\n      tag_141\n        /* \"#utility.yul\":1537:1542   */\n      dup2\n        /* \"#utility.yul\":1519:1543   */\n      tag_107\n      jump\t// in\n    tag_141:\n        /* \"#utility.yul\":1514:1517   */\n      dup3\n        /* \"#utility.yul\":1507:1544   */\n      mstore\n        /* \"#utility.yul\":1432:1550   */\n      pop\n      pop\n      jump\t// out\n        /* \"#utility.yul\":1556:1778   */\n    tag_22:\n        /* \"#utility.yul\":1649:1653   */\n      0x00\n        /* \"#utility.yul\":1687:1689   */\n      0x20\n        /* \"#utility.yul\":1676:1685   */\n      dup3\n        /* \"#utility.yul\":1672:1690   */\n      add\n        /* \"#utility.yul\":1664:1690   */\n      swap1\n      pop\n        /* \"#utility.yul\":1700:1771   */\n      tag_143\n        /* \"#utility.yul\":1768:1769   */\n      0x00\n        /* \"#utility.yul\":1757:1766   */\n      dup4\n        /* \"#utility.yul\":1753:1770   */\n      add\n        /* \"#utility.yul\":1744:1750   */\n      dup5\n        /* \"#utility.yul\":1700:1771   */\n      tag_108\n      jump\t// in\n    tag_143:\n        /* \"#utility.yul\":1556:1778   */\n      swap3\n      swap2\n      pop\n      pop\n      jump\t// out\n        /* \"#utility.yul\":1865:1982   */\n    tag_110:\n        /* \"#utility.yul\":1974:1975   */\n      0x00\n        /* \"#utility.yul\":1971:1972   */\n      dup1\n        /* \"#utility.yul\":1964:1976   */\n      revert\n        /* \"#utility.yul\":2111:2237   */\n    tag_112:\n        /* \"#utility.yul\":2148:2155   */\n      0x00\n        /* \"#utility.yul\":2188:2230   */\n      0xffffffffffffffffffffffffffffffffffffffff\n        /* \"#utility.yul\":2181:2186   */\n      dup3\n        /* \"#utility.yul\":2177:2231   */\n      and\n        /* \"#utility.yul\":2166:2231   */\n      swap1\n      pop\n        /* \"#utility.yul\":2111:2237   */\n      swap2\n      swap1\n      pop\n      jump\t// out\n        /* \"#utility.yul\":2243:2339   */\n    tag_113:\n        /* \"#utility.yul\":2280:2287   */\n      0x00\n        /* \"#utility.yul\":2309:2333   */\n      tag_149\n        /* \"#utility.yul\":2327:2332   */\n      dup3\n        /* \"#utility.yul\":2309:2333   */\n      tag_112\n      jump\t// in\n    tag_149:\n        /* \"#utility.yul\":2298:2333   */\n      swap1\n      pop\n        /* \"#utility.yul\":2243:2339   */\n      swap2\n      swap1\n      pop\n      jump\t// out\n        /* \"#utility.yul\":2345:2467   */\n    tag_114:\n        /* \"#utility.yul\":2418:2442   */\n      tag_151\n        /* \"#utility.yul\":2436:2441   */\n      dup2\n        /* \"#utility.yul\":2418:2442   */\n      tag_113\n      jump\t// in\n    tag_151:\n        /* \"#utility.yul\":2411:2416   */\n      dup2\n        /* \"#utility.yul\":2408:2443   */\n      eq\n        /* \"#utility.yul\":2398:2461   */\n      tag_152\n      jumpi\n        /* \"#utility.yul\":2457:2458   */\n      0x00\n        /* \"#utility.yul\":2454:2455   */\n      dup1\n        /* \"#utility.yul\":2447:2459   */\n      revert\n        /* \"#utility.yul\":2398:2461   */\n    tag_152:\n        /* \"#utility.yul\":2345:2467   */\n      pop\n      jump\t// out\n        /* \"#utility.yul\":2473:2612   */\n    tag_115:\n        /* \"#utility.yul\":2519:2524   */\n      0x00\n        /* \"#utility.yul\":2557:2563   */\n      dup2\n        /* \"#utility.yul\":2544:2564   */\n      calldataload\n        /* \"#utility.yul\":2535:2564   */\n      swap1\n      pop\n        /* \"#utility.yul\":2573:2606   */\n      tag_154\n        /* \"#utility.yul\":2600:2605   */\n      dup2\n        /* \"#utility.yul\":2573:2606   */\n      tag_114\n      jump\t// in\n    tag_154:\n        /* \"#utility.yul\":2473:2612   */\n      swap3\n      swap2\n      pop\n      pop\n      jump\t// out\n        /* \"#utility.yul\":2618:2740   */\n    tag_116:\n        /* \"#utility.yul\":2691:2715   */\n      tag_156\n        /* \"#utility.yul\":2709:2714   */\n      dup2\n        /* \"#utility.yul\":2691:2715   */\n      tag_107\n      jump\t// in\n    tag_156:\n        /* \"#utility.yul\":2684:2689   */\n      dup2\n        /* \"#utility.yul\":2681:2716   */\n      eq\n        /* \"#utility.yul\":2671:2734   */\n      tag_157\n      jumpi\n        /* \"#utility.yul\":2730:2731   */\n      0x00\n        /* \"#utility.yul\":2727:2728   */\n      dup1\n        /* \"#utility.yul\":2720:2732   */\n      revert\n        /* \"#utility.yul\":2671:2734   */\n    tag_157:\n        /* \"#utility.yul\":2618:2740   */\n      pop\n      jump\t// out\n        /* \"#utility.yul\":2746:2885   */\n    tag_117:\n        /* \"#utility.yul\":2792:2797   */\n      0x00\n        /* \"#utility.yul\":2830:2836   */\n      dup2\n        /* \"#utility.yul\":2817:2837   */\n      calldataload\n        /* \"#utility.yul\":2808:2837   */\n      swap1\n      pop\n        /* \"#utility.yul\":2846:2879   */\n      tag_159\n        /* \"#utility.yul\":2873:2878   */\n      dup2\n        /* \"#utility.yul\":2846:2879   */\n      tag_116\n      jump\t// in\n    tag_159:\n        /* \"#utility.yul\":2746:2885   */\n      swap3\n      swap2\n      pop\n      pop\n      jump\t// out\n        /* \"#utility.yul\":2891:3510   */\n    tag_25:\n        /* \"#utility.yul\":2968:2974   */\n      0x00\n        /* \"#utility.yul\":2976:2982   */\n      dup1\n        /* \"#utility.yul\":2984:2990   */\n      0x00\n        /* \"#utility.yul\":3033:3035   */\n      0x60\n        /* \"#utility.yul\":3021:3030   */\n      dup5\n        /* \"#utility.yul\":3012:3019   */\n      dup7\n        /* \"#utility.yul\":3008:3031   */\n      sub\n        /* \"#utility.yul\":3004:3036   */\n      slt\n        /* \"#utility.yul\":3001:3120   */\n      iszero\n      tag_161\n      jumpi\n        /* \"#utility.yul\":3039:3118   */\n      tag_162\n      tag_110\n      jump\t// in\n    tag_162:\n        /* \"#utility.yul\":3001:3120   */\n    tag_161:\n        /* \"#utility.yul\":3159:3160   */\n      0x00\n        /* \"#utility.yul\":3184:3237   */\n      tag_163\n        /* \"#utility.yul\":3229:3236   */\n      dup7\n        /* \"#utility.yul\":3220:3226   */\n      dup3\n        /* \"#utility.yul\":3209:3218   */\n      dup8\n        /* \"#utility.yul\":3205:3227   */\n      add\n        /* \"#utility.yul\":3184:3237   */\n      tag_115\n      jump\t// in\n    tag_163:\n        /* \"#utility.yul\":3174:3237   */\n      swap4\n      pop\n        /* \"#utility.yul\":3130:3247   */\n      pop\n        /* \"#utility.yul\":3286:3288   */\n      0x20\n        /* \"#utility.yul\":3312:3365   */\n      tag_164\n        /* \"#utility.yul\":3357:3364   */\n      dup7\n        /* \"#utility.yul\":3348:3354   */\n      dup3\n        /* \"#utility.yul\":3337:3346   */\n      dup8\n        /* \"#utility.yul\":3333:3355   */\n      add\n        /* \"#utility.yul\":3312:3365   */\n      tag_115\n      jump\t// in\n    tag_164:\n        /* \"#utility.yul\":3302:3365   */\n      swap3\n      pop\n        /* \"#utility.yul\":3257:3375   */\n      pop\n        /* \"#utility.yul\":3414:3416   */\n      0x40\n        /* \"#utility.yul\":3440:3493   */\n      tag_165\n        /* \"#utility.yul\":3485:3492   */\n      dup7\n        /* \"#utility.yul\":3476:3482   */\n      dup3\n        /* \"#utility.yul\":3465:3474   */\n      dup8\n        /* \"#utility.yul\":3461:3483   */\n      add\n        /* \"#utility.yul\":3440:3493   */\n      tag_117\n      jump\t// in\n    tag_165:\n        /* \"#utility.yul\":3430:3493   */\n      swap2\n      pop\n        /* \"#utility.yul\":3385:3503   */\n      pop\n        /* \"#utility.yul\":2891:3510   */\n      swap3\n      pop\n      swap3\n      pop\n      swap3\n      jump\t// out\n        /* \"#utility.yul\":3516:3606   */\n    tag_118:\n        /* \"#utility.yul\":3550:3557   */\n      0x00\n        /* \"#utility.yul\":3593:3598   */\n      dup2\n        /* \"#utility.yul\":3586:3599   */\n      iszero\n        /* \"#utility.yul\":3579:3600   */\n      iszero\n        /* \"#utility.yul\":3568:3600   */\n      swap1\n      pop\n        /* \"#utility.yul\":3516:3606   */\n      swap2\n      swap1\n      pop\n      jump\t// out\n        /* \"#utility.yul\":3612:3721   */\n    tag_119:\n        /* \"#utility.yul\":3693:3714   */\n      tag_168\n        /* \"#utility.yul\":3708:3713   */\n      dup2\n        /* \"#utility.yul\":3693:3714   */\n      tag_118\n      jump\t// in\n    tag_168:\n        /* \"#utility.yul\":3688:3691   */\n      dup3\n        /* \"#utility.yul\":3681:3715   */\n      mstore\n        /* \"#utility.yul\":3612:3721   */\n      pop\n      pop\n      jump\t// out\n        /* \"#utility.yul\":3727:3937   */\n    tag_28:\n        /* \"#utility.yul\":3814:3818   */\n      0x00\n        /* \"#utility.yul\":3852:3854   */\n      0x20\n        /* \"#utility.yul\":3841:3850   */\n      dup3\n        /* \"#utility.yul\":3837:3855   */\n      add\n        /* \"#utility.yul\":3829:3855   */\n      swap1\n      pop\n        /* \"#utility.yul\":3865:3930   */\n      tag_170\n        /* \"#utility.yul\":3927:3928   */\n      0x00\n        /* \"#utility.yul\":3916:3925   */\n      dup4\n        /* \"#utility.yul\":3912:3929   */\n      add\n        /* \"#utility.yul\":3903:3909   */\n      dup5\n        /* \"#utility.yul\":3865:3930   */\n      tag_119\n      jump\t// in\n    tag_170:\n        /* \"#utility.yul\":3727:3937   */\n      swap3\n      swap2\n      pop\n      pop\n      jump\t// out\n        /* \"#utility.yul\":3943:4272   */\n    tag_34:\n        /* \"#utility.yul\":4002:4008   */\n      0x00\n        /* \"#utility.yul\":4051:4053   */\n      0x20\n        /* \"#utility.yul\":4039:4048   */\n      dup3\n        /* \"#utility.yul\":4030:4037   */\n      dup5\n        /* \"#utility.yul\":4026:4049   */\n      sub\n        /* \"#utility.yul\":4022:4054   */\n      slt\n        /* \"#utility.yul\":4019:4138   */\n      iszero\n      tag_172\n      jumpi\n        /* \"#utility.yul\":4057:4136   */\n      tag_173\n      tag_110\n      jump\t// in\n    tag_173:\n        /* \"#utility.yul\":4019:4138   */\n    tag_172:\n        /* \"#utility.yul\":4177:4178   */\n      0x00\n        /* \"#utility.yul\":4202:4255   */\n      tag_174\n        /* \"#utility.yul\":4247:4254   */\n      dup5\n        /* \"#utility.yul\":4238:4244   */\n      dup3\n        /* \"#utility.yul\":4227:4236   */\n      dup6\n        /* \"#utility.yul\":4223:4245   */\n      add\n        /* \"#utility.yul\":4202:4255   */\n      tag_117\n      jump\t// in\n    tag_174:\n        /* \"#utility.yul\":4192:4255   */\n      swap2\n      pop\n        /* \"#utility.yul\":4148:4265   */\n      pop\n        /* \"#utility.yul\":3943:4272   */\n      swap3\n      swap2\n      pop\n      pop\n      jump\t// out\n        /* \"#utility.yul\":4278:4607   */\n    tag_39:\n        /* \"#utility.yul\":4337:4343   */\n      0x00\n        /* \"#utility.yul\":4386:4388   */\n      0x20\n        /* \"#utility.yul\":4374:4383   */\n      dup3\n        /* \"#utility.yul\":4365:4372   */\n      dup5\n        /* \"#utility.yul\":4361:4384   */\n      sub\n        /* \"#utility.yul\":4357:4389   */\n      slt\n        /* \"#utility.yul\":4354:4473   */\n      iszero\n      tag_176\n      jumpi\n        /* \"#utility.yul\":4392:4471   */\n      tag_177\n      tag_110\n      jump\t// in\n    tag_177:\n        /* \"#utility.yul\":4354:4473   */\n    tag_176:\n        /* \"#utility.yul\":4512:4513   */\n      0x00\n        /* \"#utility.yul\":4537:4590   */\n      tag_178\n        /* \"#utility.yul\":4582:4589   */\n      dup5\n        /* \"#utility.yul\":4573:4579   */\n      dup3\n        /* \"#utility.yul\":4562:4571   */\n      dup6\n        /* \"#utility.yul\":4558:4580   */\n      add\n        /* \"#utility.yul\":4537:4590   */\n      tag_115\n      jump\t// in\n    tag_178:\n        /* \"#utility.yul\":4527:4590   */\n      swap2\n      pop\n        /* \"#utility.yul\":4483:4600   */\n      pop\n        /* \"#utility.yul\":4278:4607   */\n      swap3\n      swap2\n      pop\n      pop\n      jump\t// out\n        /* \"#utility.yul\":4613:5087   */\n    tag_51:\n        /* \"#utility.yul\":4681:4687   */\n      0x00\n        /* \"#utility.yul\":4689:4695   */\n      dup1\n        /* \"#utility.yul\":4738:4740   */\n      0x40\n        /* \"#utility.yul\":4726:4735   */\n      dup4\n        /* \"#utility.yul\":4717:4724   */\n      dup6\n        /* \"#utility.yul\":4713:4736   */\n      sub\n        /* \"#utility.yul\":4709:4741   */\n      slt\n        /* \"#utility.yul\":4706:4825   */\n      iszero\n      tag_180\n      jumpi\n        /* \"#utility.yul\":4744:4823   */\n      tag_181\n      tag_110\n      jump\t// in\n    tag_181:\n        /* \"#utility.yul\":4706:4825   */\n    tag_180:\n        /* \"#utility.yul\":4864:4865   */\n      0x00\n        /* \"#utility.yul\":4889:4942   */\n      tag_182\n        /* \"#utility.yul\":4934:4941   */\n      dup6\n        /* \"#utility.yul\":4925:4931   */\n      dup3\n        /* \"#utility.yul\":4914:4923   */\n      dup7\n        /* \"#utility.yul\":4910:4932   */\n      add\n        /* \"#utility.yul\":4889:4942   */\n      tag_115\n      jump\t// in\n    tag_182:\n        /* \"#utility.yul\":4879:4942   */\n      swap3\n      pop\n        /* \"#utility.yul\":4835:4952   */\n      pop\n        /* \"#utility.yul\":4991:4993   */\n      0x20\n        /* \"#utility.yul\":5017:5070   */\n      tag_183\n        /* \"#utility.yul\":5062:5069   */\n      dup6\n        /* \"#utility.yul\":5053:5059   */\n      dup3\n        /* \"#utility.yul\":5042:5051   */\n      dup7\n        /* \"#utility.yul\":5038:5060   */\n      add\n        /* \"#utility.yul\":5017:5070   */\n      tag_115\n      jump\t// in\n    tag_183:\n        /* \"#utility.yul\":5007:5070   */\n      swap2\n      pop\n        /* \"#utility.yul\":4962:5080   */\n      pop\n        /* \"#utility.yul\":4613:5087   */\n      swap3\n      pop\n      swap3\n      swap1\n      pop\n      jump\t// out\n        /* \"#utility.yul\":5093:5567   */\n    tag_56:\n        /* \"#utility.yul\":5161:5167   */\n      0x00\n        /* \"#utility.yul\":5169:5175   */\n      dup1\n        /* \"#utility.yul\":5218:5220   */\n      0x40\n        /* \"#utility.yul\":5206:5215   */\n      dup4\n        /* \"#utility.yul\":5197:5204   */\n      dup6\n        /* \"#utility.yul\":5193:5216   */\n      sub\n        /* \"#utility.yul\":5189:5221   */\n      slt\n        /* \"#utility.yul\":5186:5305   */\n      iszero\n      tag_185\n      jumpi\n        /* \"#utility.yul\":5224:5303   */\n      tag_186\n      tag_110\n      jump\t// in\n    tag_186:\n        /* \"#utility.yul\":5186:5305   */\n    tag_185:\n        /* \"#utility.yul\":5344:5345   */\n      0x00\n        /* \"#utility.yul\":5369:5422   */\n      tag_187\n        /* \"#utility.yul\":5414:5421   */\n      dup6\n        /* \"#utility.yul\":5405:5411   */\n      dup3\n        /* \"#utility.yul\":5394:5403   */\n      dup7\n        /* \"#utility.yul\":5390:5412   */\n      add\n        /* \"#utility.yul\":5369:5422   */\n      tag_115\n      jump\t// in\n    tag_187:\n        /* \"#utility.yul\":5359:5422   */\n      swap3\n      pop\n        /* \"#utility.yul\":5315:5432   */\n      pop\n        /* \"#utility.yul\":5471:5473   */\n      0x20\n        /* \"#utility.yul\":5497:5550   */\n      tag_188\n        /* \"#utility.yul\":5542:5549   */\n      dup6\n        /* \"#utility.yul\":5533:5539   */\n      dup3\n        /* \"#utility.yul\":5522:5531   */\n      dup7\n        /* \"#utility.yul\":5518:5540   */\n      add\n        /* \"#utility.yul\":5497:5550   */\n      tag_117\n      jump\t// in\n    tag_188:\n        /* \"#utility.yul\":5487:5550   */\n      swap2\n      pop\n        /* \"#utility.yul\":5442:5560   */\n      pop\n        /* \"#utility.yul\":5093:5567   */\n      swap3\n      pop\n      swap3\n      swap1\n      pop\n      jump\t// out\n        /* \"#utility.yul\":5573:5753   */\n    tag_120:\n        /* \"#utility.yul\":5621:5698   */\n      0x4e487b7100000000000000000000000000000000000000000000000000000000\n        /* \"#utility.yul\":5618:5619   */\n      0x00\n        /* \"#utility.yul\":5611:5699   */\n      mstore\n        /* \"#utility.yul\":5718:5722   */\n      0x22\n        /* \"#utility.yul\":5715:5716   */\n      0x04\n        /* \"#utility.yul\":5708:5723   */\n      mstore\n        /* \"#utility.yul\":5742:5746   */\n      0x24\n        /* \"#utility.yul\":5739:5740   */\n      0x00\n        /* \"#utility.yul\":5732:5747   */\n      revert\n        /* \"#utility.yul\":5759:6079   */\n    tag_64:\n        /* \"#utility.yul\":5803:5809   */\n      0x00\n        /* \"#utility.yul\":5840:5841   */\n      0x02\n        /* \"#utility.yul\":5834:5838   */\n      dup3\n        /* \"#utility.yul\":5830:5842   */\n      div\n        /* \"#utility.yul\":5820:5842   */\n      swap1\n      pop\n        /* \"#utility.yul\":5887:5888   */\n      0x01\n        /* \"#utility.yul\":5881:5885   */\n      dup3\n        /* \"#utility.yul\":5877:5889   */\n      and\n        /* \"#utility.yul\":5908:5926   */\n      dup1\n        /* \"#utility.yul\":5898:5979   */\n      tag_191\n      jumpi\n        /* \"#utility.yul\":5964:5968   */\n      0x7f\n        /* \"#utility.yul\":5956:5962   */\n      dup3\n        /* \"#utility.yul\":5952:5969   */\n      and\n        /* \"#utility.yul\":5942:5969   */\n      swap2\n      pop\n        /* \"#utility.yul\":5898:5979   */\n    tag_191:\n        /* \"#utility.yul\":6026:6028   */\n      0x20\n        /* \"#utility.yul\":6018:6024   */\n      dup3\n        /* \"#utility.yul\":6015:6029   */\n      lt\n        /* \"#utility.yul\":5995:6013   */\n      dup2\n        /* \"#utility.yul\":5992:6030   */\n      sub\n        /* \"#utility.yul\":5989:6073   */\n      tag_192\n      jumpi\n        /* \"#utility.yul\":6045:6063   */\n      tag_193\n      tag_120\n      jump\t// in\n    tag_193:\n        /* \"#utility.yul\":5989:6073   */\n    tag_192:\n        /* \"#utility.yul\":5810:6079   */\n      pop\n        /* \"#utility.yul\":5759:6079   */\n      swap2\n      swap1\n      pop\n      jump\t// out\n        /* \"#utility.yul\":6085:6265   */\n    tag_121:\n        /* \"#utility.yul\":6133:6210   */\n      0x4e487b7100000000000000000000000000000000000000000000000000000000\n        /* \"#utility.yul\":6130:6131   */\n      0x00\n        /* \"#utility.yul\":6123:6211   */\n      mstore\n        /* \"#utility.yul\":6230:6234   */\n      0x11\n        /* \"#utility.yul\":6227:6228   */\n      0x04\n        /* \"#utility.yul\":6220:6235   */\n      mstore\n        /* \"#utility.yul\":6254:6258   */\n      0x24\n        /* \"#utility.yul\":6251:6252   */\n      0x00\n        /* \"#utility.yul\":6244:6259   */\n      revert\n        /* \"#utility.yul\":6271:6462   */\n    tag_74:\n        /* \"#utility.yul\":6311:6314   */\n      0x00\n        /* \"#utility.yul\":6330:6350   */\n      tag_196\n        /* \"#utility.yul\":6348:6349   */\n      dup3\n        /* \"#utility.yul\":6330:6350   */\n      tag_107\n      jump\t// in\n    tag_196:\n        /* \"#utility.yul\":6325:6350   */\n      swap2\n      pop\n        /* \"#utility.yul\":6364:6384   */\n      tag_197\n        /* \"#utility.yul\":6382:6383   */\n      dup4\n        /* \"#utility.yul\":6364:6384   */\n      tag_107\n      jump\t// in\n    tag_197:\n        /* \"#utility.yul\":6359:6384   */\n      swap3\n      pop\n        /* \"#utility.yul\":6407:6408   */\n      dup3\n        /* \"#utility.yul\":6404:6405   */\n      dup3\n        /* \"#utility.yul\":6400:6409   */\n      add\n        /* \"#utility.yul\":6393:6409   */\n      swap1\n      pop\n        /* \"#utility.yul\":6428:6431   */\n      dup1\n        /* \"#utility.yul\":6425:6426   */\n      dup3\n        /* \"#utility.yul\":6422:6432   */\n      gt\n        /* \"#utility.yul\":6419:6455   */\n      iszero\n      tag_198\n      jumpi\n        /* \"#utility.yul\":6435:6453   */\n      tag_199\n      tag_121\n      jump\t// in\n    tag_199:\n        /* \"#utility.yul\":6419:6455   */\n    tag_198:\n        /* \"#utility.yul\":6271:6462   */\n      swap3\n      swap2\n      pop\n      pop\n      jump\t// out\n        /* \"#utility.yul\":6468:6662   */\n    tag_76:\n        /* \"#utility.yul\":6508:6512   */\n      0x00\n        /* \"#utility.yul\":6528:6548   */\n      tag_201\n        /* \"#utility.yul\":6546:6547   */\n      dup3\n        /* \"#utility.yul\":6528:6548   */\n      tag_107\n      jump\t// in\n    tag_201:\n        /* \"#utility.yul\":6523:6548   */\n      swap2\n      pop\n        /* \"#utility.yul\":6562:6582   */\n      tag_202\n        /* \"#utility.yul\":6580:6581   */\n      dup4\n        /* \"#utility.yul\":6562:6582   */\n      tag_107\n      jump\t// in\n    tag_202:\n        /* \"#utility.yul\":6557:6582   */\n      swap3\n      pop\n        /* \"#utility.yul\":6606:6607   */\n      dup3\n        /* \"#utility.yul\":6603:6604   */\n      dup3\n        /* \"#utility.yul\":6599:6608   */\n      sub\n        /* \"#utility.yul\":6591:6608   */\n      swap1\n      pop\n        /* \"#utility.yul\":6630:6631   */\n      dup2\n        /* \"#utility.yul\":6624:6628   */\n      dup2\n        /* \"#utility.yul\":6621:6632   */\n      gt\n        /* \"#utility.yul\":6618:6655   */\n      iszero\n      tag_203\n      jumpi\n        /* \"#utility.yul\":6635:6653   */\n      tag_204\n      tag_121\n      jump\t// in\n    tag_204:\n        /* \"#utility.yul\":6618:6655   */\n    tag_203:\n        /* \"#utility.yul\":6468:6662   */\n      swap3\n      swap2\n      pop\n      pop\n      jump\t// out\n        /* \"#utility.yul\":6668:6850   */\n    tag_122:\n        /* \"#utility.yul\":6808:6842   */\n      0x6f6e6c792061646d696e2063616e2072756e20746869732066756e6374696f6e\n        /* \"#utility.yul\":6804:6805   */\n      0x00\n        /* \"#utility.yul\":6796:6802   */\n      dup3\n        /* \"#utility.yul\":6792:6806   */\n      add\n        /* \"#utility.yul\":6785:6843   */\n      mstore\n        /* \"#utility.yul\":6668:6850   */\n      pop\n      jump\t// out\n        /* \"#utility.yul\":6856:7222   */\n    tag_123:\n        /* \"#utility.yul\":6998:7001   */\n      0x00\n        /* \"#utility.yul\":7019:7086   */\n      tag_207\n        /* \"#utility.yul\":7083:7085   */\n      0x20\n        /* \"#utility.yul\":7078:7081   */\n      dup4\n        /* \"#utility.yul\":7019:7086   */\n      tag_103\n      jump\t// in\n    tag_207:\n        /* \"#utility.yul\":7012:7086   */\n      swap2\n      pop\n        /* \"#utility.yul\":7095:7188   */\n      tag_208\n        /* \"#utility.yul\":7184:7187   */\n      dup3\n        /* \"#utility.yul\":7095:7188   */\n      tag_122\n      jump\t// in\n    tag_208:\n        /* \"#utility.yul\":7213:7215   */\n      0x20\n        /* \"#utility.yul\":7208:7211   */\n      dup3\n        /* \"#utility.yul\":7204:7216   */\n      add\n        /* \"#utility.yul\":7197:7216   */\n      swap1\n      pop\n        /* \"#utility.yul\":6856:7222   */\n      swap2\n      swap1\n      pop\n      jump\t// out\n        /* \"#utility.yul\":7228:7647   */\n    tag_81:\n        /* \"#utility.yul\":7394:7398   */\n      0x00\n        /* \"#utility.yul\":7432:7434   */\n      0x20\n        /* \"#utility.yul\":7421:7430   */\n      dup3\n        /* \"#utility.yul\":7417:7435   */\n      add\n        /* \"#utility.yul\":7409:7435   */\n      swap1\n      pop\n        /* \"#utility.yul\":7481:7490   */\n      dup2\n        /* \"#utility.yul\":7475:7479   */\n      dup2\n        /* \"#utility.yul\":7471:7491   */\n      sub\n        /* \"#utility.yul\":7467:7468   */\n      0x00\n        /* \"#utility.yul\":7456:7465   */\n      dup4\n        /* \"#utility.yul\":7452:7469   */\n      add\n        /* \"#utility.yul\":7445:7492   */\n      mstore\n        /* \"#utility.yul\":7509:7640   */\n      tag_210\n        /* \"#utility.yul\":7635:7639   */\n      dup2\n        /* \"#utility.yul\":7509:7640   */\n      tag_123\n      jump\t// in\n    tag_210:\n        /* \"#utility.yul\":7501:7640   */\n      swap1\n      pop\n        /* \"#utility.yul\":7228:7647   */\n      swap2\n      swap1\n      pop\n      jump\t// out\n\n    auxdata: 0xa2646970667358221220f1f7da94c85da7c2438b4e430d78f6cb4d265d2ebffbd8c343174598859846da64736f6c63430008130033\n}\n",
				"bytecode": {
					"linkReferences": {},
					"object": "60806040526040518060400160405280600581526020017f457468544b000000000000000000000000000000000000000000000000000000815250600090816200004a91906200036d565b506040518060400160405280600381526020017f45544b0000000000000000000000000000000000000000000000000000000000815250600190816200009191906200036d565b50612710600255612710600555348015620000ab57600080fd5b5033600660006101000a81548173ffffffffffffffffffffffffffffffffffffffff021916908373ffffffffffffffffffffffffffffffffffffffff16021790555062000454565b600081519050919050565b7f4e487b7100000000000000000000000000000000000000000000000000000000600052604160045260246000fd5b7f4e487b7100000000000000000000000000000000000000000000000000000000600052602260045260246000fd5b600060028204905060018216806200017557607f821691505b6020821081036200018b576200018a6200012d565b5b50919050565b60008190508160005260206000209050919050565b60006020601f8301049050919050565b600082821b905092915050565b600060088302620001f57fffffffffffffffffffffffffffffffffffffffffffffffffffffffffffffffff82620001b6565b620002018683620001b6565b95508019841693508086168417925050509392505050565b6000819050919050565b6000819050919050565b60006200024e62000248620002428462000219565b62000223565b62000219565b9050919050565b6000819050919050565b6200026a836200022d565b62000282620002798262000255565b848454620001c3565b825550505050565b600090565b620002996200028a565b620002a68184846200025f565b505050565b5b81811015620002ce57620002c26000826200028f565b600181019050620002ac565b5050565b601f8211156200031d57620002e78162000191565b620002f284620001a6565b8101602085101562000302578190505b6200031a6200031185620001a6565b830182620002ab565b50505b505050565b600082821c905092915050565b6000620003426000198460080262000322565b1980831691505092915050565b60006200035d83836200032f565b9150826002028217905092915050565b6200037882620000f3565b67ffffffffffffffff811115620003945762000393620000fe565b5b620003a082546200015c565b620003ad828285620002d2565b600060209050601f831160018114620003e55760008415620003d0578287015190505b620003dc85826200034f565b8655506200044c565b601f198416620003f58662000191565b60005b828110156200041f57848901518255600182019150602085019450602081019050620003f8565b868310156200043f57848901516200043b601f8916826200032f565b8355505b6001600288020188555050505b505050505050565b610ee980620004646000396000f3fe608060405234801561001057600080fd5b50600436106100a95760003560e01c806370a082311161007157806370a082311461016857806395d89b4114610198578063a0712d68146101b6578063a77a8230146101e6578063a9059cbb14610216578063e1f21c6714610246576100a9565b806306fdde03146100ae57806318160ddd146100cc57806323b872dd146100ea578063313ce5671461011a57806342966c6814610138575b600080fd5b6100b6610276565b6040516100c39190610b08565b60405180910390f35b6100d4610304565b6040516100e19190610b43565b60405180910390f35b61010460048036038101906100ff9190610bed565b61030e565b6040516101119190610c5b565b60405180910390f35b610122610533565b60405161012f9190610b43565b60405180910390f35b610152600480360381019061014d9190610c76565b610539565b60405161015f9190610b43565b60405180910390f35b610182600480360381019061017d9190610ca3565b610644565b60405161018f9190610b43565b60405180910390f35b6101a061068d565b6040516101ad9190610b08565b60405180910390f35b6101d060048036038101906101cb9190610c76565b61071b565b6040516101dd9190610b43565b60405180910390f35b61020060048036038101906101fb9190610cd0565b610796565b60405161020d9190610b43565b60405180910390f35b610230600480360381019061022b9190610d10565b61081d565b60405161023d9190610c5b565b60405180910390f35b610260600480360381019061025b9190610bed565b610986565b60405161026d9190610b43565b60405180910390f35b6000805461028390610d7f565b80601f01602080910402602001604051908101604052809291908181526020018280546102af90610d7f565b80156102fc5780601f106102d1576101008083540402835291602001916102fc565b820191906000526020600020905b8154815290600101906020018083116102df57829003601f168201915b505050505081565b6000600554905090565b600080600460008673ffffffffffffffffffffffffffffffffffffffff1673ffffffffffffffffffffffffffffffffffffffff16815260200190815260200160002060003373ffffffffffffffffffffffffffffffffffffffff1673ffffffffffffffffffffffffffffffffffffffff16815260200190815260200160002054905082600360008773ffffffffffffffffffffffffffffffffffffffff1673ffffffffffffffffffffffffffffffffffffffff16815260200190815260200160002054101580156103df5750828110155b6103e857600080fd5b82600360008673ffffffffffffffffffffffffffffffffffffffff1673ffffffffffffffffffffffffffffffffffffffff16815260200190815260200160002060008282546104379190610ddf565b9250508190555082600360008773ffffffffffffffffffffffffffffffffffffffff1673ffffffffffffffffffffffffffffffffffffffff168152602001908152602001600020600082825461048d9190610e13565b9250508190555082600460008773ffffffffffffffffffffffffffffffffffffffff1673ffffffffffffffffffffffffffffffffffffffff16815260200190815260200160002060003373ffffffffffffffffffffffffffffffffffffffff1673ffffffffffffffffffffffffffffffffffffffff16815260200190815260200160002060008282546105209190610e13565b9250508190555060019150509392505050565b60025481565b6000600660009054906101000a900473ffffffffffffffffffffffffffffffffffffffff1673ffffffffffffffffffffffffffffffffffffffff163373ffffffffffffffffffffffffffffffffffffffff16146105cb576040517f08c379a00000000000000000000000000000000000000000000000000000000081526004016105c290610e93565b60405180910390fd5b81600560008282546105dd9190610e13565b9250508190555081600360003373ffffffffffffffffffffffffffffffffffffffff1673ffffffffffffffffffffffffffffffffffffffff16815260200190815260200160002060008282546106339190610e13565b925050819055506005549050919050565b6000600360008373ffffffffffffffffffffffffffffffffffffffff1673ffffffffffffffffffffffffffffffffffffffff168152602001908152602001600020549050919050565b6001805461069a90610d7f565b80601f01602080910402602001604051908101604052809291908181526020018280546106c690610d7f565b80156107135780601f106106e857610100808354040283529160200191610713565b820191906000526020600020905b8154815290600101906020018083116106f657829003601f168201915b505050505081565b6000816005600082825461072f9190610ddf565b9250508190555081600360003373ffffffffffffffffffffffffffffffffffffffff1673ffffffffffffffffffffffffffffffffffffffff16815260200190815260200160002060008282546107859190610ddf565b925050819055506005549050919050565b6000600460008473ffffffffffffffffffffffffffffffffffffffff1673ffffffffffffffffffffffffffffffffffffffff16815260200190815260200160002060008373ffffffffffffffffffffffffffffffffffffffff1673ffffffffffffffffffffffffffffffffffffffff16815260200190815260200160002054905092915050565b6000600360003373ffffffffffffffffffffffffffffffffffffffff1673ffffffffffffffffffffffffffffffffffffffff1681526020019081526020016000205482111561086b57600080fd5b81600360003373ffffffffffffffffffffffffffffffffffffffff1673ffffffffffffffffffffffffffffffffffffffff16815260200190815260200160002060008282546108ba9190610e13565b9250508190555081600360008573ffffffffffffffffffffffffffffffffffffffff1673ffffffffffffffffffffffffffffffffffffffff16815260200190815260200160002060008282546109109190610ddf565b925050819055508273ffffffffffffffffffffffffffffffffffffffff163373ffffffffffffffffffffffffffffffffffffffff167fddf252ad1be2c89b69c2b068fc378daa952ba7f163c4a11628f55a4df523b3ef846040516109749190610b43565b60405180910390a36001905092915050565b600081600460008673ffffffffffffffffffffffffffffffffffffffff1673ffffffffffffffffffffffffffffffffffffffff16815260200190815260200160002060008573ffffffffffffffffffffffffffffffffffffffff1673ffffffffffffffffffffffffffffffffffffffff168152602001908152602001600020819055508273ffffffffffffffffffffffffffffffffffffffff168473ffffffffffffffffffffffffffffffffffffffff167f8c5be1e5ebec7d5bd14f71427d1e84f3dd0314c0f7b2291e5b200ac8c7c3b92584604051610a669190610b43565b60405180910390a38190509392505050565b600081519050919050565b600082825260208201905092915050565b60005b83811015610ab2578082015181840152602081019050610a97565b60008484015250505050565b6000601f19601f8301169050919050565b6000610ada82610a78565b610ae48185610a83565b9350610af4818560208601610a94565b610afd81610abe565b840191505092915050565b60006020820190508181036000830152610b228184610acf565b905092915050565b6000819050919050565b610b3d81610b2a565b82525050565b6000602082019050610b586000830184610b34565b92915050565b600080fd5b600073ffffffffffffffffffffffffffffffffffffffff82169050919050565b6000610b8e82610b63565b9050919050565b610b9e81610b83565b8114610ba957600080fd5b50565b600081359050610bbb81610b95565b92915050565b610bca81610b2a565b8114610bd557600080fd5b50565b600081359050610be781610bc1565b92915050565b600080600060608486031215610c0657610c05610b5e565b5b6000610c1486828701610bac565b9350506020610c2586828701610bac565b9250506040610c3686828701610bd8565b9150509250925092565b60008115159050919050565b610c5581610c40565b82525050565b6000602082019050610c706000830184610c4c565b92915050565b600060208284031215610c8c57610c8b610b5e565b5b6000610c9a84828501610bd8565b91505092915050565b600060208284031215610cb957610cb8610b5e565b5b6000610cc784828501610bac565b91505092915050565b60008060408385031215610ce757610ce6610b5e565b5b6000610cf585828601610bac565b9250506020610d0685828601610bac565b9150509250929050565b60008060408385031215610d2757610d26610b5e565b5b6000610d3585828601610bac565b9250506020610d4685828601610bd8565b9150509250929050565b7f4e487b7100000000000000000000000000000000000000000000000000000000600052602260045260246000fd5b60006002820490506001821680610d9757607f821691505b602082108103610daa57610da9610d50565b5b50919050565b7f4e487b7100000000000000000000000000000000000000000000000000000000600052601160045260246000fd5b6000610dea82610b2a565b9150610df583610b2a565b9250828201905080821115610e0d57610e0c610db0565b5b92915050565b6000610e1e82610b2a565b9150610e2983610b2a565b9250828203905081811115610e4157610e40610db0565b5b92915050565b7f6f6e6c792061646d696e2063616e2072756e20746869732066756e6374696f6e600082015250565b6000610e7d602083610a83565b9150610e8882610e47565b602082019050919050565b60006020820190508181036000830152610eac81610e70565b905091905056fea2646970667358221220f1f7da94c85da7c2438b4e430d78f6cb4d265d2ebffbd8c343174598859846da64736f6c63430008130033",
					"opcodes": "PUSH1 0x80 PUSH1 0x40 MSTORE PUSH1 0x40 MLOAD DUP1 PUSH1 0x40 ADD PUSH1 0x40 MSTORE DUP1 PUSH1 0x5 DUP2 MSTORE PUSH1 0x20 ADD PUSH32 0x457468544B000000000000000000000000000000000000000000000000000000 DUP2 MSTORE POP PUSH1 0x0 SWAP1 DUP2 PUSH3 0x4A SWAP2 SWAP1 PUSH3 0x36D JUMP JUMPDEST POP PUSH1 0x40 MLOAD DUP1 PUSH1 0x40 ADD PUSH1 0x40 MSTORE DUP1 PUSH1 0x3 DUP2 MSTORE PUSH1 0x20 ADD PUSH32 0x45544B0000000000000000000000000000000000000000000000000000000000 DUP2 MSTORE POP PUSH1 0x1 SWAP1 DUP2 PUSH3 0x91 SWAP2 SWAP1 PUSH3 0x36D JUMP JUMPDEST POP PUSH2 0x2710 PUSH1 0x2 SSTORE PUSH2 0x2710 PUSH1 0x5 SSTORE CALLVALUE DUP1 ISZERO PUSH3 0xAB JUMPI PUSH1 0x0 DUP1 REVERT JUMPDEST POP CALLER PUSH1 0x6 PUSH1 0x0 PUSH2 0x100 EXP DUP2 SLOAD DUP2 PUSH20 0xFFFFFFFFFFFFFFFFFFFFFFFFFFFFFFFFFFFFFFFF MUL NOT AND SWAP1 DUP4 PUSH20 0xFFFFFFFFFFFFFFFFFFFFFFFFFFFFFFFFFFFFFFFF AND MUL OR SWAP1 SSTORE POP PUSH3 0x454 JUMP JUMPDEST PUSH1 0x0 DUP2 MLOAD SWAP1 POP SWAP2 SWAP1 POP JUMP JUMPDEST PUSH32 0x4E487B7100000000000000000000000000000000000000000000000000000000 PUSH1 0x0 MSTORE PUSH1 0x41 PUSH1 0x4 MSTORE PUSH1 0x24 PUSH1 0x0 REVERT JUMPDEST PUSH32 0x4E487B7100000000000000000000000000000000000000000000000000000000 PUSH1 0x0 MSTORE PUSH1 0x22 PUSH1 0x4 MSTORE PUSH1 0x24 PUSH1 0x0 REVERT JUMPDEST PUSH1 0x0 PUSH1 0x2 DUP3 DIV SWAP1 POP PUSH1 0x1 DUP3 AND DUP1 PUSH3 0x175 JUMPI PUSH1 0x7F DUP3 AND SWAP2 POP JUMPDEST PUSH1 0x20 DUP3 LT DUP2 SUB PUSH3 0x18B JUMPI PUSH3 0x18A PUSH3 0x12D JUMP JUMPDEST JUMPDEST POP SWAP2 SWAP1 POP JUMP JUMPDEST PUSH1 0x0 DUP2 SWAP1 POP DUP2 PUSH1 0x0 MSTORE PUSH1 0x20 PUSH1 0x0 KECCAK256 SWAP1 POP SWAP2 SWAP1 POP JUMP JUMPDEST PUSH1 0x0 PUSH1 0x20 PUSH1 0x1F DUP4 ADD DIV SWAP1 POP SWAP2 SWAP1 POP JUMP JUMPDEST PUSH1 0x0 DUP3 DUP3 SHL SWAP1 POP SWAP3 SWAP2 POP POP JUMP JUMPDEST PUSH1 0x0 PUSH1 0x8 DUP4 MUL PUSH3 0x1F5 PUSH32 0xFFFFFFFFFFFFFFFFFFFFFFFFFFFFFFFFFFFFFFFFFFFFFFFFFFFFFFFFFFFFFFFF DUP3 PUSH3 0x1B6 JUMP JUMPDEST PUSH3 0x201 DUP7 DUP4 PUSH3 0x1B6 JUMP JUMPDEST SWAP6 POP DUP1 NOT DUP5 AND SWAP4 POP DUP1 DUP7 AND DUP5 OR SWAP3 POP POP POP SWAP4 SWAP3 POP POP POP JUMP JUMPDEST PUSH1 0x0 DUP2 SWAP1 POP SWAP2 SWAP1 POP JUMP JUMPDEST PUSH1 0x0 DUP2 SWAP1 POP SWAP2 SWAP1 POP JUMP JUMPDEST PUSH1 0x0 PUSH3 0x24E PUSH3 0x248 PUSH3 0x242 DUP5 PUSH3 0x219 JUMP JUMPDEST PUSH3 0x223 JUMP JUMPDEST PUSH3 0x219 JUMP JUMPDEST SWAP1 POP SWAP2 SWAP1 POP JUMP JUMPDEST PUSH1 0x0 DUP2 SWAP1 POP SWAP2 SWAP1 POP JUMP JUMPDEST PUSH3 0x26A DUP4 PUSH3 0x22D JUMP JUMPDEST PUSH3 0x282 PUSH3 0x279 DUP3 PUSH3 0x255 JUMP JUMPDEST DUP5 DUP5 SLOAD PUSH3 0x1C3 JUMP JUMPDEST DUP3 SSTORE POP POP POP POP JUMP JUMPDEST PUSH1 0x0 SWAP1 JUMP JUMPDEST PUSH3 0x299 PUSH3 0x28A JUMP JUMPDEST PUSH3 0x2A6 DUP2 DUP5 DUP5 PUSH3 0x25F JUMP JUMPDEST POP POP POP JUMP JUMPDEST JUMPDEST DUP2 DUP2 LT ISZERO PUSH3 0x2CE JUMPI PUSH3 0x2C2 PUSH1 0x0 DUP3 PUSH3 0x28F JUMP JUMPDEST PUSH1 0x1 DUP2 ADD SWAP1 POP PUSH3 0x2AC JUMP JUMPDEST POP POP JUMP JUMPDEST PUSH1 0x1F DUP3 GT ISZERO PUSH3 0x31D JUMPI PUSH3 0x2E7 DUP2 PUSH3 0x191 JUMP JUMPDEST PUSH3 0x2F2 DUP5 PUSH3 0x1A6 JUMP JUMPDEST DUP2 ADD PUSH1 0x20 DUP6 LT ISZERO PUSH3 0x302 JUMPI DUP2 SWAP1 POP JUMPDEST PUSH3 0x31A PUSH3 0x311 DUP6 PUSH3 0x1A6 JUMP JUMPDEST DUP4 ADD DUP3 PUSH3 0x2AB JUMP JUMPDEST POP POP JUMPDEST POP POP POP JUMP JUMPDEST PUSH1 0x0 DUP3 DUP3 SHR SWAP1 POP SWAP3 SWAP2 POP POP JUMP JUMPDEST PUSH1 0x0 PUSH3 0x342 PUSH1 0x0 NOT DUP5 PUSH1 0x8 MUL PUSH3 0x322 JUMP JUMPDEST NOT DUP1 DUP4 AND SWAP2 POP POP SWAP3 SWAP2 POP POP JUMP JUMPDEST PUSH1 0x0 PUSH3 0x35D DUP4 DUP4 PUSH3 0x32F JUMP JUMPDEST SWAP2 POP DUP3 PUSH1 0x2 MUL DUP3 OR SWAP1 POP SWAP3 SWAP2 POP POP JUMP JUMPDEST PUSH3 0x378 DUP3 PUSH3 0xF3 JUMP JUMPDEST PUSH8 0xFFFFFFFFFFFFFFFF DUP2 GT ISZERO PUSH3 0x394 JUMPI PUSH3 0x393 PUSH3 0xFE JUMP JUMPDEST JUMPDEST PUSH3 0x3A0 DUP3 SLOAD PUSH3 0x15C JUMP JUMPDEST PUSH3 0x3AD DUP3 DUP3 DUP6 PUSH3 0x2D2 JUMP JUMPDEST PUSH1 0x0 PUSH1 0x20 SWAP1 POP PUSH1 0x1F DUP4 GT PUSH1 0x1 DUP2 EQ PUSH3 0x3E5 JUMPI PUSH1 0x0 DUP5 ISZERO PUSH3 0x3D0 JUMPI DUP3 DUP8 ADD MLOAD SWAP1 POP JUMPDEST PUSH3 0x3DC DUP6 DUP3 PUSH3 0x34F JUMP JUMPDEST DUP7 SSTORE POP PUSH3 0x44C JUMP JUMPDEST PUSH1 0x1F NOT DUP5 AND PUSH3 0x3F5 DUP7 PUSH3 0x191 JUMP JUMPDEST PUSH1 0x0 JUMPDEST DUP3 DUP2 LT ISZERO PUSH3 0x41F JUMPI DUP5 DUP10 ADD MLOAD DUP3 SSTORE PUSH1 0x1 DUP3 ADD SWAP2 POP PUSH1 0x20 DUP6 ADD SWAP5 POP PUSH1 0x20 DUP2 ADD SWAP1 POP PUSH3 0x3F8 JUMP JUMPDEST DUP7 DUP4 LT ISZERO PUSH3 0x43F JUMPI DUP5 DUP10 ADD MLOAD PUSH3 0x43B PUSH1 0x1F DUP10 AND DUP3 PUSH3 0x32F JUMP JUMPDEST DUP4 SSTORE POP JUMPDEST PUSH1 0x1 PUSH1 0x2 DUP9 MUL ADD DUP9 SSTORE POP POP POP JUMPDEST POP POP POP POP POP POP JUMP JUMPDEST PUSH2 0xEE9 DUP1 PUSH3 0x464 PUSH1 0x0 CODECOPY PUSH1 0x0 RETURN INVALID PUSH1 0x80 PUSH1 0x40 MSTORE CALLVALUE DUP1 ISZERO PUSH2 0x10 JUMPI PUSH1 0x0 DUP1 REVERT JUMPDEST POP PUSH1 0x4 CALLDATASIZE LT PUSH2 0xA9 JUMPI PUSH1 0x0 CALLDATALOAD PUSH1 0xE0 SHR DUP1 PUSH4 0x70A08231 GT PUSH2 0x71 JUMPI DUP1 PUSH4 0x70A08231 EQ PUSH2 0x168 JUMPI DUP1 PUSH4 0x95D89B41 EQ PUSH2 0x198 JUMPI DUP1 PUSH4 0xA0712D68 EQ PUSH2 0x1B6 JUMPI DUP1 PUSH4 0xA77A8230 EQ PUSH2 0x1E6 JUMPI DUP1 PUSH4 0xA9059CBB EQ PUSH2 0x216 JUMPI DUP1 PUSH4 0xE1F21C67 EQ PUSH2 0x246 JUMPI PUSH2 0xA9 JUMP JUMPDEST DUP1 PUSH4 0x6FDDE03 EQ PUSH2 0xAE JUMPI DUP1 PUSH4 0x18160DDD EQ PUSH2 0xCC JUMPI DUP1 PUSH4 0x23B872DD EQ PUSH2 0xEA JUMPI DUP1 PUSH4 0x313CE567 EQ PUSH2 0x11A JUMPI DUP1 PUSH4 0x42966C68 EQ PUSH2 0x138 JUMPI JUMPDEST PUSH1 0x0 DUP1 REVERT JUMPDEST PUSH2 0xB6 PUSH2 0x276 JUMP JUMPDEST PUSH1 0x40 MLOAD PUSH2 0xC3 SWAP2 SWAP1 PUSH2 0xB08 JUMP JUMPDEST PUSH1 0x40 MLOAD DUP1 SWAP2 SUB SWAP1 RETURN JUMPDEST PUSH2 0xD4 PUSH2 0x304 JUMP JUMPDEST PUSH1 0x40 MLOAD PUSH2 0xE1 SWAP2 SWAP1 PUSH2 0xB43 JUMP JUMPDEST PUSH1 0x40 MLOAD DUP1 SWAP2 SUB SWAP1 RETURN JUMPDEST PUSH2 0x104 PUSH1 0x4 DUP1 CALLDATASIZE SUB DUP2 ADD SWAP1 PUSH2 0xFF SWAP2 SWAP1 PUSH2 0xBED JUMP JUMPDEST PUSH2 0x30E JUMP JUMPDEST PUSH1 0x40 MLOAD PUSH2 0x111 SWAP2 SWAP1 PUSH2 0xC5B JUMP JUMPDEST PUSH1 0x40 MLOAD DUP1 SWAP2 SUB SWAP1 RETURN JUMPDEST PUSH2 0x122 PUSH2 0x533 JUMP JUMPDEST PUSH1 0x40 MLOAD PUSH2 0x12F SWAP2 SWAP1 PUSH2 0xB43 JUMP JUMPDEST PUSH1 0x40 MLOAD DUP1 SWAP2 SUB SWAP1 RETURN JUMPDEST PUSH2 0x152 PUSH1 0x4 DUP1 CALLDATASIZE SUB DUP2 ADD SWAP1 PUSH2 0x14D SWAP2 SWAP1 PUSH2 0xC76 JUMP JUMPDEST PUSH2 0x539 JUMP JUMPDEST PUSH1 0x40 MLOAD PUSH2 0x15F SWAP2 SWAP1 PUSH2 0xB43 JUMP JUMPDEST PUSH1 0x40 MLOAD DUP1 SWAP2 SUB SWAP1 RETURN JUMPDEST PUSH2 0x182 PUSH1 0x4 DUP1 CALLDATASIZE SUB DUP2 ADD SWAP1 PUSH2 0x17D SWAP2 SWAP1 PUSH2 0xCA3 JUMP JUMPDEST PUSH2 0x644 JUMP JUMPDEST PUSH1 0x40 MLOAD PUSH2 0x18F SWAP2 SWAP1 PUSH2 0xB43 JUMP JUMPDEST PUSH1 0x40 MLOAD DUP1 SWAP2 SUB SWAP1 RETURN JUMPDEST PUSH2 0x1A0 PUSH2 0x68D JUMP JUMPDEST PUSH1 0x40 MLOAD PUSH2 0x1AD SWAP2 SWAP1 PUSH2 0xB08 JUMP JUMPDEST PUSH1 0x40 MLOAD DUP1 SWAP2 SUB SWAP1 RETURN JUMPDEST PUSH2 0x1D0 PUSH1 0x4 DUP1 CALLDATASIZE SUB DUP2 ADD SWAP1 PUSH2 0x1CB SWAP2 SWAP1 PUSH2 0xC76 JUMP JUMPDEST PUSH2 0x71B JUMP JUMPDEST PUSH1 0x40 MLOAD PUSH2 0x1DD SWAP2 SWAP1 PUSH2 0xB43 JUMP JUMPDEST PUSH1 0x40 MLOAD DUP1 SWAP2 SUB SWAP1 RETURN JUMPDEST PUSH2 0x200 PUSH1 0x4 DUP1 CALLDATASIZE SUB DUP2 ADD SWAP1 PUSH2 0x1FB SWAP2 SWAP1 PUSH2 0xCD0 JUMP JUMPDEST PUSH2 0x796 JUMP JUMPDEST PUSH1 0x40 MLOAD PUSH2 0x20D SWAP2 SWAP1 PUSH2 0xB43 JUMP JUMPDEST PUSH1 0x40 MLOAD DUP1 SWAP2 SUB SWAP1 RETURN JUMPDEST PUSH2 0x230 PUSH1 0x4 DUP1 CALLDATASIZE SUB DUP2 ADD SWAP1 PUSH2 0x22B SWAP2 SWAP1 PUSH2 0xD10 JUMP JUMPDEST PUSH2 0x81D JUMP JUMPDEST PUSH1 0x40 MLOAD PUSH2 0x23D SWAP2 SWAP1 PUSH2 0xC5B JUMP JUMPDEST PUSH1 0x40 MLOAD DUP1 SWAP2 SUB SWAP1 RETURN JUMPDEST PUSH2 0x260 PUSH1 0x4 DUP1 CALLDATASIZE SUB DUP2 ADD SWAP1 PUSH2 0x25B SWAP2 SWAP1 PUSH2 0xBED JUMP JUMPDEST PUSH2 0x986 JUMP JUMPDEST PUSH1 0x40 MLOAD PUSH2 0x26D SWAP2 SWAP1 PUSH2 0xB43 JUMP JUMPDEST PUSH1 0x40 MLOAD DUP1 SWAP2 SUB SWAP1 RETURN JUMPDEST PUSH1 0x0 DUP1 SLOAD PUSH2 0x283 SWAP1 PUSH2 0xD7F JUMP JUMPDEST DUP1 PUSH1 0x1F ADD PUSH1 0x20 DUP1 SWAP2 DIV MUL PUSH1 0x20 ADD PUSH1 0x40 MLOAD SWAP1 DUP2 ADD PUSH1 0x40 MSTORE DUP1 SWAP3 SWAP2 SWAP1 DUP2 DUP2 MSTORE PUSH1 0x20 ADD DUP3 DUP1 SLOAD PUSH2 0x2AF SWAP1 PUSH2 0xD7F JUMP JUMPDEST DUP1 ISZERO PUSH2 0x2FC JUMPI DUP1 PUSH1 0x1F LT PUSH2 0x2D1 JUMPI PUSH2 0x100 DUP1 DUP4 SLOAD DIV MUL DUP4 MSTORE SWAP2 PUSH1 0x20 ADD SWAP2 PUSH2 0x2FC JUMP JUMPDEST DUP3 ADD SWAP2 SWAP1 PUSH1 0x0 MSTORE PUSH1 0x20 PUSH1 0x0 KECCAK256 SWAP1 JUMPDEST DUP2 SLOAD DUP2 MSTORE SWAP1 PUSH1 0x1 ADD SWAP1 PUSH1 0x20 ADD DUP1 DUP4 GT PUSH2 0x2DF JUMPI DUP3 SWAP1 SUB PUSH1 0x1F AND DUP3 ADD SWAP2 JUMPDEST POP POP POP POP POP DUP2 JUMP JUMPDEST PUSH1 0x0 PUSH1 0x5 SLOAD SWAP1 POP SWAP1 JUMP JUMPDEST PUSH1 0x0 DUP1 PUSH1 0x4 PUSH1 0x0 DUP7 PUSH20 0xFFFFFFFFFFFFFFFFFFFFFFFFFFFFFFFFFFFFFFFF AND PUSH20 0xFFFFFFFFFFFFFFFFFFFFFFFFFFFFFFFFFFFFFFFF AND DUP2 MSTORE PUSH1 0x20 ADD SWAP1 DUP2 MSTORE PUSH1 0x20 ADD PUSH1 0x0 KECCAK256 PUSH1 0x0 CALLER PUSH20 0xFFFFFFFFFFFFFFFFFFFFFFFFFFFFFFFFFFFFFFFF AND PUSH20 0xFFFFFFFFFFFFFFFFFFFFFFFFFFFFFFFFFFFFFFFF AND DUP2 MSTORE PUSH1 0x20 ADD SWAP1 DUP2 MSTORE PUSH1 0x20 ADD PUSH1 0x0 KECCAK256 SLOAD SWAP1 POP DUP3 PUSH1 0x3 PUSH1 0x0 DUP8 PUSH20 0xFFFFFFFFFFFFFFFFFFFFFFFFFFFFFFFFFFFFFFFF AND PUSH20 0xFFFFFFFFFFFFFFFFFFFFFFFFFFFFFFFFFFFFFFFF AND DUP2 MSTORE PUSH1 0x20 ADD SWAP1 DUP2 MSTORE PUSH1 0x20 ADD PUSH1 0x0 KECCAK256 SLOAD LT ISZERO DUP1 ISZERO PUSH2 0x3DF JUMPI POP DUP3 DUP2 LT ISZERO JUMPDEST PUSH2 0x3E8 JUMPI PUSH1 0x0 DUP1 REVERT JUMPDEST DUP3 PUSH1 0x3 PUSH1 0x0 DUP7 PUSH20 0xFFFFFFFFFFFFFFFFFFFFFFFFFFFFFFFFFFFFFFFF AND PUSH20 0xFFFFFFFFFFFFFFFFFFFFFFFFFFFFFFFFFFFFFFFF AND DUP2 MSTORE PUSH1 0x20 ADD SWAP1 DUP2 MSTORE PUSH1 0x20 ADD PUSH1 0x0 KECCAK256 PUSH1 0x0 DUP3 DUP3 SLOAD PUSH2 0x437 SWAP2 SWAP1 PUSH2 0xDDF JUMP JUMPDEST SWAP3 POP POP DUP2 SWAP1 SSTORE POP DUP3 PUSH1 0x3 PUSH1 0x0 DUP8 PUSH20 0xFFFFFFFFFFFFFFFFFFFFFFFFFFFFFFFFFFFFFFFF AND PUSH20 0xFFFFFFFFFFFFFFFFFFFFFFFFFFFFFFFFFFFFFFFF AND DUP2 MSTORE PUSH1 0x20 ADD SWAP1 DUP2 MSTORE PUSH1 0x20 ADD PUSH1 0x0 KECCAK256 PUSH1 0x0 DUP3 DUP3 SLOAD PUSH2 0x48D SWAP2 SWAP1 PUSH2 0xE13 JUMP JUMPDEST SWAP3 POP POP DUP2 SWAP1 SSTORE POP DUP3 PUSH1 0x4 PUSH1 0x0 DUP8 PUSH20 0xFFFFFFFFFFFFFFFFFFFFFFFFFFFFFFFFFFFFFFFF AND PUSH20 0xFFFFFFFFFFFFFFFFFFFFFFFFFFFFFFFFFFFFFFFF AND DUP2 MSTORE PUSH1 0x20 ADD SWAP1 DUP2 MSTORE PUSH1 0x20 ADD PUSH1 0x0 KECCAK256 PUSH1 0x0 CALLER PUSH20 0xFFFFFFFFFFFFFFFFFFFFFFFFFFFFFFFFFFFFFFFF AND PUSH20 0xFFFFFFFFFFFFFFFFFFFFFFFFFFFFFFFFFFFFFFFF AND DUP2 MSTORE PUSH1 0x20 ADD SWAP1 DUP2 MSTORE PUSH1 0x20 ADD PUSH1 0x0 KECCAK256 PUSH1 0x0 DUP3 DUP3 SLOAD PUSH2 0x520 SWAP2 SWAP1 PUSH2 0xE13 JUMP JUMPDEST SWAP3 POP POP DUP2 SWAP1 SSTORE POP PUSH1 0x1 SWAP2 POP POP SWAP4 SWAP3 POP POP POP JUMP JUMPDEST PUSH1 0x2 SLOAD DUP2 JUMP JUMPDEST PUSH1 0x0 PUSH1 0x6 PUSH1 0x0 SWAP1 SLOAD SWAP1 PUSH2 0x100 EXP SWAP1 DIV PUSH20 0xFFFFFFFFFFFFFFFFFFFFFFFFFFFFFFFFFFFFFFFF AND PUSH20 0xFFFFFFFFFFFFFFFFFFFFFFFFFFFFFFFFFFFFFFFF AND CALLER PUSH20 0xFFFFFFFFFFFFFFFFFFFFFFFFFFFFFFFFFFFFFFFF AND EQ PUSH2 0x5CB JUMPI PUSH1 0x40 MLOAD PUSH32 0x8C379A000000000000000000000000000000000000000000000000000000000 DUP2 MSTORE PUSH1 0x4 ADD PUSH2 0x5C2 SWAP1 PUSH2 0xE93 JUMP JUMPDEST PUSH1 0x40 MLOAD DUP1 SWAP2 SUB SWAP1 REVERT JUMPDEST DUP2 PUSH1 0x5 PUSH1 0x0 DUP3 DUP3 SLOAD PUSH2 0x5DD SWAP2 SWAP1 PUSH2 0xE13 JUMP JUMPDEST SWAP3 POP POP DUP2 SWAP1 SSTORE POP DUP2 PUSH1 0x3 PUSH1 0x0 CALLER PUSH20 0xFFFFFFFFFFFFFFFFFFFFFFFFFFFFFFFFFFFFFFFF AND PUSH20 0xFFFFFFFFFFFFFFFFFFFFFFFFFFFFFFFFFFFFFFFF AND DUP2 MSTORE PUSH1 0x20 ADD SWAP1 DUP2 MSTORE PUSH1 0x20 ADD PUSH1 0x0 KECCAK256 PUSH1 0x0 DUP3 DUP3 SLOAD PUSH2 0x633 SWAP2 SWAP1 PUSH2 0xE13 JUMP JUMPDEST SWAP3 POP POP DUP2 SWAP1 SSTORE POP PUSH1 0x5 SLOAD SWAP1 POP SWAP2 SWAP1 POP JUMP JUMPDEST PUSH1 0x0 PUSH1 0x3 PUSH1 0x0 DUP4 PUSH20 0xFFFFFFFFFFFFFFFFFFFFFFFFFFFFFFFFFFFFFFFF AND PUSH20 0xFFFFFFFFFFFFFFFFFFFFFFFFFFFFFFFFFFFFFFFF AND DUP2 MSTORE PUSH1 0x20 ADD SWAP1 DUP2 MSTORE PUSH1 0x20 ADD PUSH1 0x0 KECCAK256 SLOAD SWAP1 POP SWAP2 SWAP1 POP JUMP JUMPDEST PUSH1 0x1 DUP1 SLOAD PUSH2 0x69A SWAP1 PUSH2 0xD7F JUMP JUMPDEST DUP1 PUSH1 0x1F ADD PUSH1 0x20 DUP1 SWAP2 DIV MUL PUSH1 0x20 ADD PUSH1 0x40 MLOAD SWAP1 DUP2 ADD PUSH1 0x40 MSTORE DUP1 SWAP3 SWAP2 SWAP1 DUP2 DUP2 MSTORE PUSH1 0x20 ADD DUP3 DUP1 SLOAD PUSH2 0x6C6 SWAP1 PUSH2 0xD7F JUMP JUMPDEST DUP1 ISZERO PUSH2 0x713 JUMPI DUP1 PUSH1 0x1F LT PUSH2 0x6E8 JUMPI PUSH2 0x100 DUP1 DUP4 SLOAD DIV MUL DUP4 MSTORE SWAP2 PUSH1 0x20 ADD SWAP2 PUSH2 0x713 JUMP JUMPDEST DUP3 ADD SWAP2 SWAP1 PUSH1 0x0 MSTORE PUSH1 0x20 PUSH1 0x0 KECCAK256 SWAP1 JUMPDEST DUP2 SLOAD DUP2 MSTORE SWAP1 PUSH1 0x1 ADD SWAP1 PUSH1 0x20 ADD DUP1 DUP4 GT PUSH2 0x6F6 JUMPI DUP3 SWAP1 SUB PUSH1 0x1F AND DUP3 ADD SWAP2 JUMPDEST POP POP POP POP POP DUP2 JUMP JUMPDEST PUSH1 0x0 DUP2 PUSH1 0x5 PUSH1 0x0 DUP3 DUP3 SLOAD PUSH2 0x72F SWAP2 SWAP1 PUSH2 0xDDF JUMP JUMPDEST SWAP3 POP POP DUP2 SWAP1 SSTORE POP DUP2 PUSH1 0x3 PUSH1 0x0 CALLER PUSH20 0xFFFFFFFFFFFFFFFFFFFFFFFFFFFFFFFFFFFFFFFF AND PUSH20 0xFFFFFFFFFFFFFFFFFFFFFFFFFFFFFFFFFFFFFFFF AND DUP2 MSTORE PUSH1 0x20 ADD SWAP1 DUP2 MSTORE PUSH1 0x20 ADD PUSH1 0x0 KECCAK256 PUSH1 0x0 DUP3 DUP3 SLOAD PUSH2 0x785 SWAP2 SWAP1 PUSH2 0xDDF JUMP JUMPDEST SWAP3 POP POP DUP2 SWAP1 SSTORE POP PUSH1 0x5 SLOAD SWAP1 POP SWAP2 SWAP1 POP JUMP JUMPDEST PUSH1 0x0 PUSH1 0x4 PUSH1 0x0 DUP5 PUSH20 0xFFFFFFFFFFFFFFFFFFFFFFFFFFFFFFFFFFFFFFFF AND PUSH20 0xFFFFFFFFFFFFFFFFFFFFFFFFFFFFFFFFFFFFFFFF AND DUP2 MSTORE PUSH1 0x20 ADD SWAP1 DUP2 MSTORE PUSH1 0x20 ADD PUSH1 0x0 KECCAK256 PUSH1 0x0 DUP4 PUSH20 0xFFFFFFFFFFFFFFFFFFFFFFFFFFFFFFFFFFFFFFFF AND PUSH20 0xFFFFFFFFFFFFFFFFFFFFFFFFFFFFFFFFFFFFFFFF AND DUP2 MSTORE PUSH1 0x20 ADD SWAP1 DUP2 MSTORE PUSH1 0x20 ADD PUSH1 0x0 KECCAK256 SLOAD SWAP1 POP SWAP3 SWAP2 POP POP JUMP JUMPDEST PUSH1 0x0 PUSH1 0x3 PUSH1 0x0 CALLER PUSH20 0xFFFFFFFFFFFFFFFFFFFFFFFFFFFFFFFFFFFFFFFF AND PUSH20 0xFFFFFFFFFFFFFFFFFFFFFFFFFFFFFFFFFFFFFFFF AND DUP2 MSTORE PUSH1 0x20 ADD SWAP1 DUP2 MSTORE PUSH1 0x20 ADD PUSH1 0x0 KECCAK256 SLOAD DUP3 GT ISZERO PUSH2 0x86B JUMPI PUSH1 0x0 DUP1 REVERT JUMPDEST DUP2 PUSH1 0x3 PUSH1 0x0 CALLER PUSH20 0xFFFFFFFFFFFFFFFFFFFFFFFFFFFFFFFFFFFFFFFF AND PUSH20 0xFFFFFFFFFFFFFFFFFFFFFFFFFFFFFFFFFFFFFFFF AND DUP2 MSTORE PUSH1 0x20 ADD SWAP1 DUP2 MSTORE PUSH1 0x20 ADD PUSH1 0x0 KECCAK256 PUSH1 0x0 DUP3 DUP3 SLOAD PUSH2 0x8BA SWAP2 SWAP1 PUSH2 0xE13 JUMP JUMPDEST SWAP3 POP POP DUP2 SWAP1 SSTORE POP DUP2 PUSH1 0x3 PUSH1 0x0 DUP6 PUSH20 0xFFFFFFFFFFFFFFFFFFFFFFFFFFFFFFFFFFFFFFFF AND PUSH20 0xFFFFFFFFFFFFFFFFFFFFFFFFFFFFFFFFFFFFFFFF AND DUP2 MSTORE PUSH1 0x20 ADD SWAP1 DUP2 MSTORE PUSH1 0x20 ADD PUSH1 0x0 KECCAK256 PUSH1 0x0 DUP3 DUP3 SLOAD PUSH2 0x910 SWAP2 SWAP1 PUSH2 0xDDF JUMP JUMPDEST SWAP3 POP POP DUP2 SWAP1 SSTORE POP DUP3 PUSH20 0xFFFFFFFFFFFFFFFFFFFFFFFFFFFFFFFFFFFFFFFF AND CALLER PUSH20 0xFFFFFFFFFFFFFFFFFFFFFFFFFFFFFFFFFFFFFFFF AND PUSH32 0xDDF252AD1BE2C89B69C2B068FC378DAA952BA7F163C4A11628F55A4DF523B3EF DUP5 PUSH1 0x40 MLOAD PUSH2 0x974 SWAP2 SWAP1 PUSH2 0xB43 JUMP JUMPDEST PUSH1 0x40 MLOAD DUP1 SWAP2 SUB SWAP1 LOG3 PUSH1 0x1 SWAP1 POP SWAP3 SWAP2 POP POP JUMP JUMPDEST PUSH1 0x0 DUP2 PUSH1 0x4 PUSH1 0x0 DUP7 PUSH20 0xFFFFFFFFFFFFFFFFFFFFFFFFFFFFFFFFFFFFFFFF AND PUSH20 0xFFFFFFFFFFFFFFFFFFFFFFFFFFFFFFFFFFFFFFFF AND DUP2 MSTORE PUSH1 0x20 ADD SWAP1 DUP2 MSTORE PUSH1 0x20 ADD PUSH1 0x0 KECCAK256 PUSH1 0x0 DUP6 PUSH20 0xFFFFFFFFFFFFFFFFFFFFFFFFFFFFFFFFFFFFFFFF AND PUSH20 0xFFFFFFFFFFFFFFFFFFFFFFFFFFFFFFFFFFFFFFFF AND DUP2 MSTORE PUSH1 0x20 ADD SWAP1 DUP2 MSTORE PUSH1 0x20 ADD PUSH1 0x0 KECCAK256 DUP2 SWAP1 SSTORE POP DUP3 PUSH20 0xFFFFFFFFFFFFFFFFFFFFFFFFFFFFFFFFFFFFFFFF AND DUP5 PUSH20 0xFFFFFFFFFFFFFFFFFFFFFFFFFFFFFFFFFFFFFFFF AND PUSH32 0x8C5BE1E5EBEC7D5BD14F71427D1E84F3DD0314C0F7B2291E5B200AC8C7C3B925 DUP5 PUSH1 0x40 MLOAD PUSH2 0xA66 SWAP2 SWAP1 PUSH2 0xB43 JUMP JUMPDEST PUSH1 0x40 MLOAD DUP1 SWAP2 SUB SWAP1 LOG3 DUP2 SWAP1 POP SWAP4 SWAP3 POP POP POP JUMP JUMPDEST PUSH1 0x0 DUP2 MLOAD SWAP1 POP SWAP2 SWAP1 POP JUMP JUMPDEST PUSH1 0x0 DUP3 DUP3 MSTORE PUSH1 0x20 DUP3 ADD SWAP1 POP SWAP3 SWAP2 POP POP JUMP JUMPDEST PUSH1 0x0 JUMPDEST DUP4 DUP2 LT ISZERO PUSH2 0xAB2 JUMPI DUP1 DUP3 ADD MLOAD DUP2 DUP5 ADD MSTORE PUSH1 0x20 DUP2 ADD SWAP1 POP PUSH2 0xA97 JUMP JUMPDEST PUSH1 0x0 DUP5 DUP5 ADD MSTORE POP POP POP POP JUMP JUMPDEST PUSH1 0x0 PUSH1 0x1F NOT PUSH1 0x1F DUP4 ADD AND SWAP1 POP SWAP2 SWAP1 POP JUMP JUMPDEST PUSH1 0x0 PUSH2 0xADA DUP3 PUSH2 0xA78 JUMP JUMPDEST PUSH2 0xAE4 DUP2 DUP6 PUSH2 0xA83 JUMP JUMPDEST SWAP4 POP PUSH2 0xAF4 DUP2 DUP6 PUSH1 0x20 DUP7 ADD PUSH2 0xA94 JUMP JUMPDEST PUSH2 0xAFD DUP2 PUSH2 0xABE JUMP JUMPDEST DUP5 ADD SWAP2 POP POP SWAP3 SWAP2 POP POP JUMP JUMPDEST PUSH1 0x0 PUSH1 0x20 DUP3 ADD SWAP1 POP DUP2 DUP2 SUB PUSH1 0x0 DUP4 ADD MSTORE PUSH2 0xB22 DUP2 DUP5 PUSH2 0xACF JUMP JUMPDEST SWAP1 POP SWAP3 SWAP2 POP POP JUMP JUMPDEST PUSH1 0x0 DUP2 SWAP1 POP SWAP2 SWAP1 POP JUMP JUMPDEST PUSH2 0xB3D DUP2 PUSH2 0xB2A JUMP JUMPDEST DUP3 MSTORE POP POP JUMP JUMPDEST PUSH1 0x0 PUSH1 0x20 DUP3 ADD SWAP1 POP PUSH2 0xB58 PUSH1 0x0 DUP4 ADD DUP5 PUSH2 0xB34 JUMP JUMPDEST SWAP3 SWAP2 POP POP JUMP JUMPDEST PUSH1 0x0 DUP1 REVERT JUMPDEST PUSH1 0x0 PUSH20 0xFFFFFFFFFFFFFFFFFFFFFFFFFFFFFFFFFFFFFFFF DUP3 AND SWAP1 POP SWAP2 SWAP1 POP JUMP JUMPDEST PUSH1 0x0 PUSH2 0xB8E DUP3 PUSH2 0xB63 JUMP JUMPDEST SWAP1 POP SWAP2 SWAP1 POP JUMP JUMPDEST PUSH2 0xB9E DUP2 PUSH2 0xB83 JUMP JUMPDEST DUP2 EQ PUSH2 0xBA9 JUMPI PUSH1 0x0 DUP1 REVERT JUMPDEST POP JUMP JUMPDEST PUSH1 0x0 DUP2 CALLDATALOAD SWAP1 POP PUSH2 0xBBB DUP2 PUSH2 0xB95 JUMP JUMPDEST SWAP3 SWAP2 POP POP JUMP JUMPDEST PUSH2 0xBCA DUP2 PUSH2 0xB2A JUMP JUMPDEST DUP2 EQ PUSH2 0xBD5 JUMPI PUSH1 0x0 DUP1 REVERT JUMPDEST POP JUMP JUMPDEST PUSH1 0x0 DUP2 CALLDATALOAD SWAP1 POP PUSH2 0xBE7 DUP2 PUSH2 0xBC1 JUMP JUMPDEST SWAP3 SWAP2 POP POP JUMP JUMPDEST PUSH1 0x0 DUP1 PUSH1 0x0 PUSH1 0x60 DUP5 DUP7 SUB SLT ISZERO PUSH2 0xC06 JUMPI PUSH2 0xC05 PUSH2 0xB5E JUMP JUMPDEST JUMPDEST PUSH1 0x0 PUSH2 0xC14 DUP7 DUP3 DUP8 ADD PUSH2 0xBAC JUMP JUMPDEST SWAP4 POP POP PUSH1 0x20 PUSH2 0xC25 DUP7 DUP3 DUP8 ADD PUSH2 0xBAC JUMP JUMPDEST SWAP3 POP POP PUSH1 0x40 PUSH2 0xC36 DUP7 DUP3 DUP8 ADD PUSH2 0xBD8 JUMP JUMPDEST SWAP2 POP POP SWAP3 POP SWAP3 POP SWAP3 JUMP JUMPDEST PUSH1 0x0 DUP2 ISZERO ISZERO SWAP1 POP SWAP2 SWAP1 POP JUMP JUMPDEST PUSH2 0xC55 DUP2 PUSH2 0xC40 JUMP JUMPDEST DUP3 MSTORE POP POP JUMP JUMPDEST PUSH1 0x0 PUSH1 0x20 DUP3 ADD SWAP1 POP PUSH2 0xC70 PUSH1 0x0 DUP4 ADD DUP5 PUSH2 0xC4C JUMP JUMPDEST SWAP3 SWAP2 POP POP JUMP JUMPDEST PUSH1 0x0 PUSH1 0x20 DUP3 DUP5 SUB SLT ISZERO PUSH2 0xC8C JUMPI PUSH2 0xC8B PUSH2 0xB5E JUMP JUMPDEST JUMPDEST PUSH1 0x0 PUSH2 0xC9A DUP5 DUP3 DUP6 ADD PUSH2 0xBD8 JUMP JUMPDEST SWAP2 POP POP SWAP3 SWAP2 POP POP JUMP JUMPDEST PUSH1 0x0 PUSH1 0x20 DUP3 DUP5 SUB SLT ISZERO PUSH2 0xCB9 JUMPI PUSH2 0xCB8 PUSH2 0xB5E JUMP JUMPDEST JUMPDEST PUSH1 0x0 PUSH2 0xCC7 DUP5 DUP3 DUP6 ADD PUSH2 0xBAC JUMP JUMPDEST SWAP2 POP POP SWAP3 SWAP2 POP POP JUMP JUMPDEST PUSH1 0x0 DUP1 PUSH1 0x40 DUP4 DUP6 SUB SLT ISZERO PUSH2 0xCE7 JUMPI PUSH2 0xCE6 PUSH2 0xB5E JUMP JUMPDEST JUMPDEST PUSH1 0x0 PUSH2 0xCF5 DUP6 DUP3 DUP7 ADD PUSH2 0xBAC JUMP JUMPDEST SWAP3 POP POP PUSH1 0x20 PUSH2 0xD06 DUP6 DUP3 DUP7 ADD PUSH2 0xBAC JUMP JUMPDEST SWAP2 POP POP SWAP3 POP SWAP3 SWAP1 POP JUMP JUMPDEST PUSH1 0x0 DUP1 PUSH1 0x40 DUP4 DUP6 SUB SLT ISZERO PUSH2 0xD27 JUMPI PUSH2 0xD26 PUSH2 0xB5E JUMP JUMPDEST JUMPDEST PUSH1 0x0 PUSH2 0xD35 DUP6 DUP3 DUP7 ADD PUSH2 0xBAC JUMP JUMPDEST SWAP3 POP POP PUSH1 0x20 PUSH2 0xD46 DUP6 DUP3 DUP7 ADD PUSH2 0xBD8 JUMP JUMPDEST SWAP2 POP POP SWAP3 POP SWAP3 SWAP1 POP JUMP JUMPDEST PUSH32 0x4E487B7100000000000000000000000000000000000000000000000000000000 PUSH1 0x0 MSTORE PUSH1 0x22 PUSH1 0x4 MSTORE PUSH1 0x24 PUSH1 0x0 REVERT JUMPDEST PUSH1 0x0 PUSH1 0x2 DUP3 DIV SWAP1 POP PUSH1 0x1 DUP3 AND DUP1 PUSH2 0xD97 JUMPI PUSH1 0x7F DUP3 AND SWAP2 POP JUMPDEST PUSH1 0x20 DUP3 LT DUP2 SUB PUSH2 0xDAA JUMPI PUSH2 0xDA9 PUSH2 0xD50 JUMP JUMPDEST JUMPDEST POP SWAP2 SWAP1 POP JUMP JUMPDEST PUSH32 0x4E487B7100000000000000000000000000000000000000000000000000000000 PUSH1 0x0 MSTORE PUSH1 0x11 PUSH1 0x4 MSTORE PUSH1 0x24 PUSH1 0x0 REVERT JUMPDEST PUSH1 0x0 PUSH2 0xDEA DUP3 PUSH2 0xB2A JUMP JUMPDEST SWAP2 POP PUSH2 0xDF5 DUP4 PUSH2 0xB2A JUMP JUMPDEST SWAP3 POP DUP3 DUP3 ADD SWAP1 POP DUP1 DUP3 GT ISZERO PUSH2 0xE0D JUMPI PUSH2 0xE0C PUSH2 0xDB0 JUMP JUMPDEST JUMPDEST SWAP3 SWAP2 POP POP JUMP JUMPDEST PUSH1 0x0 PUSH2 0xE1E DUP3 PUSH2 0xB2A JUMP JUMPDEST SWAP2 POP PUSH2 0xE29 DUP4 PUSH2 0xB2A JUMP JUMPDEST SWAP3 POP DUP3 DUP3 SUB SWAP1 POP DUP2 DUP2 GT ISZERO PUSH2 0xE41 JUMPI PUSH2 0xE40 PUSH2 0xDB0 JUMP JUMPDEST JUMPDEST SWAP3 SWAP2 POP POP JUMP JUMPDEST PUSH32 0x6F6E6C792061646D696E2063616E2072756E20746869732066756E6374696F6E PUSH1 0x0 DUP3 ADD MSTORE POP JUMP JUMPDEST PUSH1 0x0 PUSH2 0xE7D PUSH1 0x20 DUP4 PUSH2 0xA83 JUMP JUMPDEST SWAP2 POP PUSH2 0xE88 DUP3 PUSH2 0xE47 JUMP JUMPDEST PUSH1 0x20 DUP3 ADD SWAP1 POP SWAP2 SWAP1 POP JUMP JUMPDEST PUSH1 0x0 PUSH1 0x20 DUP3 ADD SWAP1 POP DUP2 DUP2 SUB PUSH1 0x0 DUP4 ADD MSTORE PUSH2 0xEAC DUP2 PUSH2 0xE70 JUMP JUMPDEST SWAP1 POP SWAP2 SWAP1 POP JUMP INVALID LOG2 PUSH5 0x6970667358 0x22 SLT KECCAK256 CALL 0xF7 0xDA SWAP5 0xC8 0x5D 0xA7 0xC2 NUMBER DUP12 0x4E NUMBER 0xD PUSH25 0xF6CB4D265D2EBFFBD8C343174598859846DA64736F6C634300 ADDMOD SGT STOP CALLER "
				},
				"gasEstimates": {
					"creation": {
						"codeDepositCost": "763400",
						"executionCost": "infinite",
						"totalCost": "infinite"
					},
					"external": {
						"allowence(address,address)": "infinite",
						"approve(address,address,uint256)": "infinite",
						"balanceOf(address)": "2841",
						"burn(uint256)": "infinite",
						"decimals()": "2496",
						"mint(uint256)": "infinite",
						"name()": "infinite",
						"symbol()": "infinite",
						"totalSupply()": "2460",
						"transfer(address,uint256)": "infinite",
						"transferFrom(address,address,uint256)": "infinite"
					}
				},
				"methodIdentifiers": {
					"allowence(address,address)": "a77a8230",
					"approve(address,address,uint256)": "e1f21c67",
					"balanceOf(address)": "70a08231",
					"burn(uint256)": "42966c68",
					"decimals()": "313ce567",
					"mint(uint256)": "a0712d68",
					"name()": "06fdde03",
					"symbol()": "95d89b41",
					"totalSupply()": "18160ddd",
					"transfer(address,uint256)": "a9059cbb",
					"transferFrom(address,address,uint256)": "23b872dd"
				}
			},
			"storageLayout": {
				"storage": [
					{
						"astId": 58,
						"contract": "dynamic_nft/erc20.sol:erc20",
						"label": "name",
						"offset": 0,
						"slot": "0",
						"type": "t_string_storage"
					},
					{
						"astId": 61,
						"contract": "dynamic_nft/erc20.sol:erc20",
						"label": "symbol",
						"offset": 0,
						"slot": "1",
						"type": "t_string_storage"
					},
					{
						"astId": 64,
						"contract": "dynamic_nft/erc20.sol:erc20",
						"label": "decimals",
						"offset": 0,
						"slot": "2",
						"type": "t_uint256"
					},
					{
						"astId": 76,
						"contract": "dynamic_nft/erc20.sol:erc20",
						"label": "balances",
						"offset": 0,
						"slot": "3",
						"type": "t_mapping(t_address,t_uint256)"
					},
					{
						"astId": 82,
						"contract": "dynamic_nft/erc20.sol:erc20",
						"label": "allowed",
						"offset": 0,
						"slot": "4",
						"type": "t_mapping(t_address,t_mapping(t_address,t_uint256))"
					},
					{
						"astId": 85,
						"contract": "dynamic_nft/erc20.sol:erc20",
						"label": "totalSupply_",
						"offset": 0,
						"slot": "5",
						"type": "t_uint256"
					},
					{
						"astId": 87,
						"contract": "dynamic_nft/erc20.sol:erc20",
						"label": "admin",
						"offset": 0,
						"slot": "6",
						"type": "t_address"
					}
				],
				"types": {
					"t_address": {
						"encoding": "inplace",
						"label": "address",
						"numberOfBytes": "20"
					},
					"t_mapping(t_address,t_mapping(t_address,t_uint256))": {
						"encoding": "mapping",
						"key": "t_address",
						"label": "mapping(address => mapping(address => uint256))",
						"numberOfBytes": "32",
						"value": "t_mapping(t_address,t_uint256)"
					},
					"t_mapping(t_address,t_uint256)": {
						"encoding": "mapping",
						"key": "t_address",
						"label": "mapping(address => uint256)",
						"numberOfBytes": "32",
						"value": "t_uint256"
					},
					"t_string_storage": {
						"encoding": "bytes",
						"label": "string",
						"numberOfBytes": "32"
					},
					"t_uint256": {
						"encoding": "inplace",
						"label": "uint256",
						"numberOfBytes": "32"
					}
				}
			},
			"userdoc": {
				"kind": "user",
				"methods": {},
				"version": 1
			}
		}
	}
}