{
	"data": {
		"bytecode": {
			"linkReferences": {},
			"object": "608060405234801561001057600080fd5b50610837806100206000396000f3fe608060405234801561001057600080fd5b50600436106100365760003560e01c80635e9bc5361461003b578063c1340f691461006b575b600080fd5b610055600480360381019061005091906103b8565b61009b565b6040516100629190610442565b60405180910390f35b610085600480360381019061008091906103b8565b6100cd565b6040516100929190610442565b60405180910390f35b6000806100ab8787878787610181565b8051906020012090506100c18360001b826101d5565b91505095945050505050565b6000806100dd8787878787610181565b905060006100f58460001b83805190602001206101d5565b905060008173ffffffffffffffffffffffffffffffffffffffff163b14610120578092505050610178565b61012f60008560001b846101ea565b90507f07fba7bba1191da7ee1155dcfa0030701c9c9a9cc34a93b991fc6fd0c9268d8f81898989898960405161016a9695949392919061046c565b60405180910390a180925050505b95945050505050565b6060858286868660405160200161019b94939291906104cd565b6040516020818303038152906040526040516020016101bb92919061066e565b604051602081830303815290604052905095945050505050565b60006101e28383306102f4565b905092915050565b60008347101561022f576040517f08c379a000000000000000000000000000000000000000000000000000000000815260040161022690610709565b60405180910390fd5b6000825103610273576040517f08c379a000000000000000000000000000000000000000000000000000000000815260040161026a90610775565b60405180910390fd5b8282516020840186f59050600073ffffffffffffffffffffffffffffffffffffffff168173ffffffffffffffffffffffffffffffffffffffff16036102ed576040517f08c379a00000000000000000000000000000000000000000000000000000000081526004016102e4906107e1565b60405180910390fd5b9392505050565b6000604051836040820152846020820152828152600b810160ff815360558120925050509392505050565b600080fd5b600073ffffffffffffffffffffffffffffffffffffffff82169050919050565b600061034f82610324565b9050919050565b61035f81610344565b811461036a57600080fd5b50565b60008135905061037c81610356565b92915050565b6000819050919050565b61039581610382565b81146103a057600080fd5b50565b6000813590506103b28161038c565b92915050565b600080600080600060a086880312156103d4576103d361031f565b5b60006103e28882890161036d565b95505060206103f3888289016103a3565b94505060406104048882890161036d565b9350506060610415888289016103a3565b9250506080610426888289016103a3565b9150509295509295909350565b61043c81610344565b82525050565b60006020820190506104576000830184610433565b92915050565b61046681610382565b82525050565b600060c0820190506104816000830189610433565b61048e6020830188610433565b61049b604083018761045d565b6104a86060830186610433565b6104b5608083018561045d565b6104c260a083018461045d565b979650505050505050565b60006080820190506104e2600083018761045d565b6104ef602083018661045d565b6104fc6040830185610433565b610509606083018461045d565b95945050505050565b600081905092915050565b7f3d60ad80600a3d3981f3363d3d373d3d3d363d73000000000000000000000000600082015250565b6000610553601483610512565b915061055e8261051d565b601482019050919050565b60008160601b9050919050565b600061058182610569565b9050919050565b600061059382610576565b9050919050565b6105ab6105a682610344565b610588565b82525050565b7f5af43d82803e903d91602b57fd5bf30000000000000000000000000000000000600082015250565b60006105e7600f83610512565b91506105f2826105b1565b600f82019050919050565b600081519050919050565b600081905092915050565b60005b83811015610631578082015181840152602081019050610616565b60008484015250505050565b6000610648826105fd565b6106528185610608565b9350610662818560208601610613565b80840191505092915050565b600061067982610546565b9150610685828561059a565b601482019150610694826105da565b91506106a0828461063d565b91508190509392505050565b600082825260208201905092915050565b7f437265617465323a20696e73756666696369656e742062616c616e6365000000600082015250565b60006106f3601d836106ac565b91506106fe826106bd565b602082019050919050565b60006020820190508181036000830152610722816106e6565b9050919050565b7f437265617465323a2062797465636f6465206c656e677468206973207a65726f600082015250565b600061075f6020836106ac565b915061076a82610729565b602082019050919050565b6000602082019050818103600083015261078e81610752565b9050919050565b7f437265617465323a204661696c6564206f6e206465706c6f7900000000000000600082015250565b60006107cb6019836106ac565b91506107d682610795565b602082019050919050565b600060208201905081810360008301526107fa816107be565b905091905056fea2646970667358221220b6fee8b0307088d5245d1398d316ee92c8a60bcfca84dee74b814f6bb067308964736f6c63430008130033",
			"opcodes": "PUSH1 0x80 PUSH1 0x40 MSTORE CALLVALUE DUP1 ISZERO PUSH2 0x10 JUMPI PUSH1 0x0 DUP1 REVERT JUMPDEST POP PUSH2 0x837 DUP1 PUSH2 0x20 PUSH1 0x0 CODECOPY PUSH1 0x0 RETURN INVALID PUSH1 0x80 PUSH1 0x40 MSTORE CALLVALUE DUP1 ISZERO PUSH2 0x10 JUMPI PUSH1 0x0 DUP1 REVERT JUMPDEST POP PUSH1 0x4 CALLDATASIZE LT PUSH2 0x36 JUMPI PUSH1 0x0 CALLDATALOAD PUSH1 0xE0 SHR DUP1 PUSH4 0x5E9BC536 EQ PUSH2 0x3B JUMPI DUP1 PUSH4 0xC1340F69 EQ PUSH2 0x6B JUMPI JUMPDEST PUSH1 0x0 DUP1 REVERT JUMPDEST PUSH2 0x55 PUSH1 0x4 DUP1 CALLDATASIZE SUB DUP2 ADD SWAP1 PUSH2 0x50 SWAP2 SWAP1 PUSH2 0x3B8 JUMP JUMPDEST PUSH2 0x9B JUMP JUMPDEST PUSH1 0x40 MLOAD PUSH2 0x62 SWAP2 SWAP1 PUSH2 0x442 JUMP JUMPDEST PUSH1 0x40 MLOAD DUP1 SWAP2 SUB SWAP1 RETURN JUMPDEST PUSH2 0x85 PUSH1 0x4 DUP1 CALLDATASIZE SUB DUP2 ADD SWAP1 PUSH2 0x80 SWAP2 SWAP1 PUSH2 0x3B8 JUMP JUMPDEST PUSH2 0xCD JUMP JUMPDEST PUSH1 0x40 MLOAD PUSH2 0x92 SWAP2 SWAP1 PUSH2 0x442 JUMP JUMPDEST PUSH1 0x40 MLOAD DUP1 SWAP2 SUB SWAP1 RETURN JUMPDEST PUSH1 0x0 DUP1 PUSH2 0xAB DUP8 DUP8 DUP8 DUP8 DUP8 PUSH2 0x181 JUMP JUMPDEST DUP1 MLOAD SWAP1 PUSH1 0x20 ADD KECCAK256 SWAP1 POP PUSH2 0xC1 DUP4 PUSH1 0x0 SHL DUP3 PUSH2 0x1D5 JUMP JUMPDEST SWAP2 POP POP SWAP6 SWAP5 POP POP POP POP POP JUMP JUMPDEST PUSH1 0x0 DUP1 PUSH2 0xDD DUP8 DUP8 DUP8 DUP8 DUP8 PUSH2 0x181 JUMP JUMPDEST SWAP1 POP PUSH1 0x0 PUSH2 0xF5 DUP5 PUSH1 0x0 SHL DUP4 DUP1 MLOAD SWAP1 PUSH1 0x20 ADD KECCAK256 PUSH2 0x1D5 JUMP JUMPDEST SWAP1 POP PUSH1 0x0 DUP2 PUSH20 0xFFFFFFFFFFFFFFFFFFFFFFFFFFFFFFFFFFFFFFFF AND EXTCODESIZE EQ PUSH2 0x120 JUMPI DUP1 SWAP3 POP POP POP PUSH2 0x178 JUMP JUMPDEST PUSH2 0x12F PUSH1 0x0 DUP6 PUSH1 0x0 SHL DUP5 PUSH2 0x1EA JUMP JUMPDEST SWAP1 POP PUSH32 0x7FBA7BBA1191DA7EE1155DCFA0030701C9C9A9CC34A93B991FC6FD0C9268D8F DUP2 DUP10 DUP10 DUP10 DUP10 DUP10 PUSH1 0x40 MLOAD PUSH2 0x16A SWAP7 SWAP6 SWAP5 SWAP4 SWAP3 SWAP2 SWAP1 PUSH2 0x46C JUMP JUMPDEST PUSH1 0x40 MLOAD DUP1 SWAP2 SUB SWAP1 LOG1 DUP1 SWAP3 POP POP POP JUMPDEST SWAP6 SWAP5 POP POP POP POP POP JUMP JUMPDEST PUSH1 0x60 DUP6 DUP3 DUP7 DUP7 DUP7 PUSH1 0x40 MLOAD PUSH1 0x20 ADD PUSH2 0x19B SWAP5 SWAP4 SWAP3 SWAP2 SWAP1 PUSH2 0x4CD JUMP JUMPDEST PUSH1 0x40 MLOAD PUSH1 0x20 DUP2 DUP4 SUB SUB DUP2 MSTORE SWAP1 PUSH1 0x40 MSTORE PUSH1 0x40 MLOAD PUSH1 0x20 ADD PUSH2 0x1BB SWAP3 SWAP2 SWAP1 PUSH2 0x66E JUMP JUMPDEST PUSH1 0x40 MLOAD PUSH1 0x20 DUP2 DUP4 SUB SUB DUP2 MSTORE SWAP1 PUSH1 0x40 MSTORE SWAP1 POP SWAP6 SWAP5 POP POP POP POP POP JUMP JUMPDEST PUSH1 0x0 PUSH2 0x1E2 DUP4 DUP4 ADDRESS PUSH2 0x2F4 JUMP JUMPDEST SWAP1 POP SWAP3 SWAP2 POP POP JUMP JUMPDEST PUSH1 0x0 DUP4 SELFBALANCE LT ISZERO PUSH2 0x22F JUMPI PUSH1 0x40 MLOAD PUSH32 0x8C379A000000000000000000000000000000000000000000000000000000000 DUP2 MSTORE PUSH1 0x4 ADD PUSH2 0x226 SWAP1 PUSH2 0x709 JUMP JUMPDEST PUSH1 0x40 MLOAD DUP1 SWAP2 SUB SWAP1 REVERT JUMPDEST PUSH1 0x0 DUP3 MLOAD SUB PUSH2 0x273 JUMPI PUSH1 0x40 MLOAD PUSH32 0x8C379A000000000000000000000000000000000000000000000000000000000 DUP2 MSTORE PUSH1 0x4 ADD PUSH2 0x26A SWAP1 PUSH2 0x775 JUMP JUMPDEST PUSH1 0x40 MLOAD DUP1 SWAP2 SUB SWAP1 REVERT JUMPDEST DUP3 DUP3 MLOAD PUSH1 0x20 DUP5 ADD DUP7 CREATE2 SWAP1 POP PUSH1 0x0 PUSH20 0xFFFFFFFFFFFFFFFFFFFFFFFFFFFFFFFFFFFFFFFF AND DUP2 PUSH20 0xFFFFFFFFFFFFFFFFFFFFFFFFFFFFFFFFFFFFFFFF AND SUB PUSH2 0x2ED JUMPI PUSH1 0x40 MLOAD PUSH32 0x8C379A000000000000000000000000000000000000000000000000000000000 DUP2 MSTORE PUSH1 0x4 ADD PUSH2 0x2E4 SWAP1 PUSH2 0x7E1 JUMP JUMPDEST PUSH1 0x40 MLOAD DUP1 SWAP2 SUB SWAP1 REVERT JUMPDEST SWAP4 SWAP3 POP POP POP JUMP JUMPDEST PUSH1 0x0 PUSH1 0x40 MLOAD DUP4 PUSH1 0x40 DUP3 ADD MSTORE DUP5 PUSH1 0x20 DUP3 ADD MSTORE DUP3 DUP2 MSTORE PUSH1 0xB DUP2 ADD PUSH1 0xFF DUP2 MSTORE8 PUSH1 0x55 DUP2 KECCAK256 SWAP3 POP POP POP SWAP4 SWAP3 POP POP POP JUMP JUMPDEST PUSH1 0x0 DUP1 REVERT JUMPDEST PUSH1 0x0 PUSH20 0xFFFFFFFFFFFFFFFFFFFFFFFFFFFFFFFFFFFFFFFF DUP3 AND SWAP1 POP SWAP2 SWAP1 POP JUMP JUMPDEST PUSH1 0x0 PUSH2 0x34F DUP3 PUSH2 0x324 JUMP JUMPDEST SWAP1 POP SWAP2 SWAP1 POP JUMP JUMPDEST PUSH2 0x35F DUP2 PUSH2 0x344 JUMP JUMPDEST DUP2 EQ PUSH2 0x36A JUMPI PUSH1 0x0 DUP1 REVERT JUMPDEST POP JUMP JUMPDEST PUSH1 0x0 DUP2 CALLDATALOAD SWAP1 POP PUSH2 0x37C DUP2 PUSH2 0x356 JUMP JUMPDEST SWAP3 SWAP2 POP POP JUMP JUMPDEST PUSH1 0x0 DUP2 SWAP1 POP SWAP2 SWAP1 POP JUMP JUMPDEST PUSH2 0x395 DUP2 PUSH2 0x382 JUMP JUMPDEST DUP2 EQ PUSH2 0x3A0 JUMPI PUSH1 0x0 DUP1 REVERT JUMPDEST POP JUMP JUMPDEST PUSH1 0x0 DUP2 CALLDATALOAD SWAP1 POP PUSH2 0x3B2 DUP2 PUSH2 0x38C JUMP JUMPDEST SWAP3 SWAP2 POP POP JUMP JUMPDEST PUSH1 0x0 DUP1 PUSH1 0x0 DUP1 PUSH1 0x0 PUSH1 0xA0 DUP7 DUP9 SUB SLT ISZERO PUSH2 0x3D4 JUMPI PUSH2 0x3D3 PUSH2 0x31F JUMP JUMPDEST JUMPDEST PUSH1 0x0 PUSH2 0x3E2 DUP9 DUP3 DUP10 ADD PUSH2 0x36D JUMP JUMPDEST SWAP6 POP POP PUSH1 0x20 PUSH2 0x3F3 DUP9 DUP3 DUP10 ADD PUSH2 0x3A3 JUMP JUMPDEST SWAP5 POP POP PUSH1 0x40 PUSH2 0x404 DUP9 DUP3 DUP10 ADD PUSH2 0x36D JUMP JUMPDEST SWAP4 POP POP PUSH1 0x60 PUSH2 0x415 DUP9 DUP3 DUP10 ADD PUSH2 0x3A3 JUMP JUMPDEST SWAP3 POP POP PUSH1 0x80 PUSH2 0x426 DUP9 DUP3 DUP10 ADD PUSH2 0x3A3 JUMP JUMPDEST SWAP2 POP POP SWAP3 SWAP6 POP SWAP3 SWAP6 SWAP1 SWAP4 POP JUMP JUMPDEST PUSH2 0x43C DUP2 PUSH2 0x344 JUMP JUMPDEST DUP3 MSTORE POP POP JUMP JUMPDEST PUSH1 0x0 PUSH1 0x20 DUP3 ADD SWAP1 POP PUSH2 0x457 PUSH1 0x0 DUP4 ADD DUP5 PUSH2 0x433 JUMP JUMPDEST SWAP3 SWAP2 POP POP JUMP JUMPDEST PUSH2 0x466 DUP2 PUSH2 0x382 JUMP JUMPDEST DUP3 MSTORE POP POP JUMP JUMPDEST PUSH1 0x0 PUSH1 0xC0 DUP3 ADD SWAP1 POP PUSH2 0x481 PUSH1 0x0 DUP4 ADD DUP10 PUSH2 0x433 JUMP JUMPDEST PUSH2 0x48E PUSH1 0x20 DUP4 ADD DUP9 PUSH2 0x433 JUMP JUMPDEST PUSH2 0x49B PUSH1 0x40 DUP4 ADD DUP8 PUSH2 0x45D JUMP JUMPDEST PUSH2 0x4A8 PUSH1 0x60 DUP4 ADD DUP7 PUSH2 0x433 JUMP JUMPDEST PUSH2 0x4B5 PUSH1 0x80 DUP4 ADD DUP6 PUSH2 0x45D JUMP JUMPDEST PUSH2 0x4C2 PUSH1 0xA0 DUP4 ADD DUP5 PUSH2 0x45D JUMP JUMPDEST SWAP8 SWAP7 POP POP POP POP POP POP POP JUMP JUMPDEST PUSH1 0x0 PUSH1 0x80 DUP3 ADD SWAP1 POP PUSH2 0x4E2 PUSH1 0x0 DUP4 ADD DUP8 PUSH2 0x45D JUMP JUMPDEST PUSH2 0x4EF PUSH1 0x20 DUP4 ADD DUP7 PUSH2 0x45D JUMP JUMPDEST PUSH2 0x4FC PUSH1 0x40 DUP4 ADD DUP6 PUSH2 0x433 JUMP JUMPDEST PUSH2 0x509 PUSH1 0x60 DUP4 ADD DUP5 PUSH2 0x45D JUMP JUMPDEST SWAP6 SWAP5 POP POP POP POP POP JUMP JUMPDEST PUSH1 0x0 DUP2 SWAP1 POP SWAP3 SWAP2 POP POP JUMP JUMPDEST PUSH32 0x3D60AD80600A3D3981F3363D3D373D3D3D363D73000000000000000000000000 PUSH1 0x0 DUP3 ADD MSTORE POP JUMP JUMPDEST PUSH1 0x0 PUSH2 0x553 PUSH1 0x14 DUP4 PUSH2 0x512 JUMP JUMPDEST SWAP2 POP PUSH2 0x55E DUP3 PUSH2 0x51D JUMP JUMPDEST PUSH1 0x14 DUP3 ADD SWAP1 POP SWAP2 SWAP1 POP JUMP JUMPDEST PUSH1 0x0 DUP2 PUSH1 0x60 SHL SWAP1 POP SWAP2 SWAP1 POP JUMP JUMPDEST PUSH1 0x0 PUSH2 0x581 DUP3 PUSH2 0x569 JUMP JUMPDEST SWAP1 POP SWAP2 SWAP1 POP JUMP JUMPDEST PUSH1 0x0 PUSH2 0x593 DUP3 PUSH2 0x576 JUMP JUMPDEST SWAP1 POP SWAP2 SWAP1 POP JUMP JUMPDEST PUSH2 0x5AB PUSH2 0x5A6 DUP3 PUSH2 0x344 JUMP JUMPDEST PUSH2 0x588 JUMP JUMPDEST DUP3 MSTORE POP POP JUMP JUMPDEST PUSH32 0x5AF43D82803E903D91602B57FD5BF30000000000000000000000000000000000 PUSH1 0x0 DUP3 ADD MSTORE POP JUMP JUMPDEST PUSH1 0x0 PUSH2 0x5E7 PUSH1 0xF DUP4 PUSH2 0x512 JUMP JUMPDEST SWAP2 POP PUSH2 0x5F2 DUP3 PUSH2 0x5B1 JUMP JUMPDEST PUSH1 0xF DUP3 ADD SWAP1 POP SWAP2 SWAP1 POP JUMP JUMPDEST PUSH1 0x0 DUP2 MLOAD SWAP1 POP SWAP2 SWAP1 POP JUMP JUMPDEST PUSH1 0x0 DUP2 SWAP1 POP SWAP3 SWAP2 POP POP JUMP JUMPDEST PUSH1 0x0 JUMPDEST DUP4 DUP2 LT ISZERO PUSH2 0x631 JUMPI DUP1 DUP3 ADD MLOAD DUP2 DUP5 ADD MSTORE PUSH1 0x20 DUP2 ADD SWAP1 POP PUSH2 0x616 JUMP JUMPDEST PUSH1 0x0 DUP5 DUP5 ADD MSTORE POP POP POP POP JUMP JUMPDEST PUSH1 0x0 PUSH2 0x648 DUP3 PUSH2 0x5FD JUMP JUMPDEST PUSH2 0x652 DUP2 DUP6 PUSH2 0x608 JUMP JUMPDEST SWAP4 POP PUSH2 0x662 DUP2 DUP6 PUSH1 0x20 DUP7 ADD PUSH2 0x613 JUMP JUMPDEST DUP1 DUP5 ADD SWAP2 POP POP SWAP3 SWAP2 POP POP JUMP JUMPDEST PUSH1 0x0 PUSH2 0x679 DUP3 PUSH2 0x546 JUMP JUMPDEST SWAP2 POP PUSH2 0x685 DUP3 DUP6 PUSH2 0x59A JUMP JUMPDEST PUSH1 0x14 DUP3 ADD SWAP2 POP PUSH2 0x694 DUP3 PUSH2 0x5DA JUMP JUMPDEST SWAP2 POP PUSH2 0x6A0 DUP3 DUP5 PUSH2 0x63D JUMP JUMPDEST SWAP2 POP DUP2 SWAP1 POP SWAP4 SWAP3 POP POP POP JUMP JUMPDEST PUSH1 0x0 DUP3 DUP3 MSTORE PUSH1 0x20 DUP3 ADD SWAP1 POP SWAP3 SWAP2 POP POP JUMP JUMPDEST PUSH32 0x437265617465323A20696E73756666696369656E742062616C616E6365000000 PUSH1 0x0 DUP3 ADD MSTORE POP JUMP JUMPDEST PUSH1 0x0 PUSH2 0x6F3 PUSH1 0x1D DUP4 PUSH2 0x6AC JUMP JUMPDEST SWAP2 POP PUSH2 0x6FE DUP3 PUSH2 0x6BD JUMP JUMPDEST PUSH1 0x20 DUP3 ADD SWAP1 POP SWAP2 SWAP1 POP JUMP JUMPDEST PUSH1 0x0 PUSH1 0x20 DUP3 ADD SWAP1 POP DUP2 DUP2 SUB PUSH1 0x0 DUP4 ADD MSTORE PUSH2 0x722 DUP2 PUSH2 0x6E6 JUMP JUMPDEST SWAP1 POP SWAP2 SWAP1 POP JUMP JUMPDEST PUSH32 0x437265617465323A2062797465636F6465206C656E677468206973207A65726F PUSH1 0x0 DUP3 ADD MSTORE POP JUMP JUMPDEST PUSH1 0x0 PUSH2 0x75F PUSH1 0x20 DUP4 PUSH2 0x6AC JUMP JUMPDEST SWAP2 POP PUSH2 0x76A DUP3 PUSH2 0x729 JUMP JUMPDEST PUSH1 0x20 DUP3 ADD SWAP1 POP SWAP2 SWAP1 POP JUMP JUMPDEST PUSH1 0x0 PUSH1 0x20 DUP3 ADD SWAP1 POP DUP2 DUP2 SUB PUSH1 0x0 DUP4 ADD MSTORE PUSH2 0x78E DUP2 PUSH2 0x752 JUMP JUMPDEST SWAP1 POP SWAP2 SWAP1 POP JUMP JUMPDEST PUSH32 0x437265617465323A204661696C6564206F6E206465706C6F7900000000000000 PUSH1 0x0 DUP3 ADD MSTORE POP JUMP JUMPDEST PUSH1 0x0 PUSH2 0x7CB PUSH1 0x19 DUP4 PUSH2 0x6AC JUMP JUMPDEST SWAP2 POP PUSH2 0x7D6 DUP3 PUSH2 0x795 JUMP JUMPDEST PUSH1 0x20 DUP3 ADD SWAP1 POP SWAP2 SWAP1 POP JUMP JUMPDEST PUSH1 0x0 PUSH1 0x20 DUP3 ADD SWAP1 POP DUP2 DUP2 SUB PUSH1 0x0 DUP4 ADD MSTORE PUSH2 0x7FA DUP2 PUSH2 0x7BE JUMP JUMPDEST SWAP1 POP SWAP2 SWAP1 POP JUMP INVALID LOG2 PUSH5 0x6970667358 0x22 SLT KECCAK256 0xB6 INVALID 0xE8 0xB0 ADDRESS PUSH17 0x88D5245D1398D316EE92C8A60BCFCA84DE 0xE7 0x4B DUP2 0x4F PUSH12 0xB067308964736F6C63430008 SGT STOP CALLER "
		},
		"gasEstimates": {
			"creation": {
				"codeDepositCost": "420600",
				"executionCost": "455",
				"totalCost": "421055"
			},
			"external": {
				"account(address,uint256,address,uint256,uint256)": "infinite",
				"createAccount(address,uint256,address,uint256,uint256)": "infinite"
			},
			"internal": {
				"_creationCode(address,uint256,address,uint256,uint256)": "infinite",
				"deploy(uint256,bytes memory)": "infinite"
			}
		},
		"methodIdentifiers": {
			"account(address,uint256,address,uint256,uint256)": "5e9bc536",
			"createAccount(address,uint256,address,uint256,uint256)": "c1340f69"
		}
	},
	"abi": [
		{
			"inputs": [],
			"name": "InitializationFailed",
			"type": "error"
		},
		{
			"anonymous": false,
			"inputs": [
				{
					"indexed": false,
					"internalType": "address",
					"name": "account",
					"type": "address"
				},
				{
					"indexed": false,
					"internalType": "address",
					"name": "implementation",
					"type": "address"
				},
				{
					"indexed": false,
					"internalType": "uint256",
					"name": "chainId",
					"type": "uint256"
				},
				{
					"indexed": false,
					"internalType": "address",
					"name": "tokenContract",
					"type": "address"
				},
				{
					"indexed": false,
					"internalType": "uint256",
					"name": "tokenId",
					"type": "uint256"
				},
				{
					"indexed": false,
					"internalType": "uint256",
					"name": "salt",
					"type": "uint256"
				}
			],
			"name": "AccountCreated",
			"type": "event"
		},
		{
			"inputs": [
				{
					"internalType": "address",
					"name": "implementation",
					"type": "address"
				},
				{
					"internalType": "uint256",
					"name": "chainId",
					"type": "uint256"
				},
				{
					"internalType": "address",
					"name": "tokenContract",
					"type": "address"
				},
				{
					"internalType": "uint256",
					"name": "tokenId",
					"type": "uint256"
				},
				{
					"internalType": "uint256",
					"name": "salt",
					"type": "uint256"
				}
			],
			"name": "account",
			"outputs": [
				{
					"internalType": "address",
					"name": "",
					"type": "address"
				}
			],
			"stateMutability": "view",
			"type": "function"
		},
		{
			"inputs": [
				{
					"internalType": "address",
					"name": "implementation",
					"type": "address"
				},
				{
					"internalType": "uint256",
					"name": "chainId",
					"type": "uint256"
				},
				{
					"internalType": "address",
					"name": "tokenContract",
					"type": "address"
				},
				{
					"internalType": "uint256",
					"name": "tokenId",
					"type": "uint256"
				},
				{
					"internalType": "uint256",
					"name": "salt",
					"type": "uint256"
				}
			],
			"name": "createAccount",
			"outputs": [
				{
					"internalType": "address",
					"name": "",
					"type": "address"
				}
			],
			"stateMutability": "nonpayable",
			"type": "function"
		}
	]
}